:020000040000FA
:10001000A0020000A0020000A0020000A002000058
:10002000A0020000A0020000A0020000A002000048
:10003000A0020000A0020000A0020000A002000038
:10004000A0020000A0020000B4C90100A00200004C
:10005000A0020000A0020000A0020000A002000018
:10006000A0020000A0020000A0020000A002000008
:10007000A0020000A0020000A0020000A0020000F8
:10008000A0020000A0020000A0020000A0020000E8
:10009000A0020000A0020000A0020000A0020000D8
:1000A000A0020000A0020000A0020000A0020000C8
:1000B000A0020000A0020000A0020000A0020000B8
:1000C000A0020000A0020000A0020000A0020000A8
:1000D000A0020000A0020000A0020000A002000098
:1000E000A0020000A0020000A0020000A002000088
:1000F000A0020000A0020000A0020000A002000078
:10010000A0020000A0020000A0020000A002000067
:10011000A0020000A0020000A0020000A002000057
:10012000A0020000A0020000A0020000A002000047
:10013000A0020000A0020000A0020000A002000037
:10014000A0020000A0020000A0020000A002000027
:10015000A0020000A0020000A0020000A002000017
:10016000A0020000A0020000A0020000A002000007
:10017000A0020000A0020000A0020000A0020000F7
:10018000A0020000A0020000A0020000A0020000E7
:10019000A0020000A0020000A0020000A0020000D7
:1001A000A0020000A0020000A0020000A0020000C7
:1001B000A0020000A0020000A0020000A0020000B7
:1001C000A0020000A0020000A0020000A0020000A7
:1001D000A0020000A0020000A0020000A002000097
:1001E000A0020000A0020000A0020000A002000087
:1001F000A0020000A0020000A0020000A002000077
:10020000FFFFFF00FFFFFF00A0020000A0020000B0
:10021000A0020000A0020000A0020000A002000056
:10022000A0020000A0020000A0020000A002000046
:10023000A0020000A0020000A0020000A002000036
:10024000A0020000A0020000B4C90100A00200004A
:10025000A0020000A0020000A0020000A002000016
:10026000A0020000A0020000A0020000A002000006
:10027000A0020000A0020000A0020000A0020000F6
:10028000A0020000A0020000A0020000A0020000E6
:10029000A0020000A0020000A0020000A0020000D6
:1002A000A0020000A0020000A0020000A0020000C6
:1002B000A0020000A0020000A0020000A0020000B6
:1002C000A0020000A0020000A0020000A0020000A6
:1002D000A0020000A0020000A0020000A002000096
:1002E000A0020000A0020000A0020000A002000086
:1002F000A0020000A0020000A0020000A002000076
:10030000A0020000A0020000A0020000A002000065
:10031000A0020000A0020000A0020000A002000055
:10032000A0020000A0020000A0020000A002000045
:10033000A0020000A0020000A0020000A002000035
:10034000A0020000A0020000A0020000A002000025
:10035000A0020000A0020000A0020000A002000015
:10036000A0020000A0020000A0020000A002000005
:10037000A0020000A0020000A0020000A0020000F5
:10038000A0020000A0020000A0020000A0020000E5
:10039000A0020000A0020000A0020000A0020000D5
:1003A000A0020000A0020000A0020000A0020000C5
:1003B000A0020000A0020000A0020000A0020000B5
:1003C000A0020000A0020000A0020000A0020000A5
:1003D000A0020000A0020000A0020000A002000095
:1003E000A0020000A0020000A0020000A002000085
:1003F000A0020000A0020000A0020000A002000075
:100400000F9A21000E7F24000E01880000000000DA
:1004100000012000200288000C000700E0952D005C
:100420001100200011000700000020000000E00083
:100430000200320000000200000000004ECE020068
:10044000010000000040DA000000FE004440A90066
:10045000608021000000E000030032000000200066
:10046000A00188004440A800000006009101880017
:10047000800078000000EB0015003700E2804000AB
:1004800032A0B4009101BA00E280400032A0B40072
:100490009102BA00E280400032A0B4000002EB00FA
:1004A000472BDE00F507B200602CE10004003A00A3
:1004B0000059EB008301E900FDFF3E000400370016
:1004C0006128E100010032000082EB000400070017
:1004D0001101BA000200E000E8FF3A000000060047
:1004E0003159BA008301E9000C0032002159BA00E9
:1004F0008301E900080032000400E00003003A0034
:10050000E280400032A0B400F5FF370011D9BA00F4
:100510008301E900FAFF3A008100E800E180400031
:1005200032A0B400000006006CD2040001000000FC
:10053000ECCE040001000000EECF0400010000003A
:100540000040DA000000FE00800078001104B100D5
:10055000030035009101B10001003C000050A000F3
:1005600000000600800078001106B100030035008D
:100570009101B10001003C000050A1000000060004
:100580000000FA0016A2A9001682A8000080FA0056
:10059000000006000000FA0000000000B410800017
:1005A00061026200E00F5200FCFF3A00B4108000CC
:1005B00062026200E00F5200F8FF3A00B4108000BF
:1005C00064026200E00F5200F4FF3A00B4108000B1
:1005D00068026200E00F5200F0FF3A00B4108000A1
:1005E00070026200E00F5200ECFF3A00C51080007C
:1005F0000400240004826200E00F5200E7FF3A008A
:100600000080FA00000006000000FA001662A80050
:1006100000000000B410800068026200E00F520089
:10062000FCFF3A0018C2A900841080000442780040
:10063000044078000080FA00000006000200FA0082
:10064000004F78009E4278000582FB0094108800DD
:10065000C51080000408200004826200E00F5200F0
:100660000200320000C2EB00010037000042EB0044
:10067000044078000080FA00000006000000FA0044
:1006800016A2A8001682A8000080FA00000006004A
:100690000400FA00000F7800110798001E02900075
:1006A000A41088001E027800B41088000080FA00B0
:1006B000000006000000FA001622A8000080FA00E0
:1006C000000006000000FA001602A8000080FA00F0
:1006D000000006000000FA001642A8000080FA00A0
:1006E000000006000000FA00143A800004037800BD
:1006F0000610A00064042000750520002774200067
:10070000844B7800854B7800864B78000002EB0024
:1007100034318800353180000400280004826200F2
:10072000E00F520007003200353180000400220043
:1007300004826200E00F520001003A000402070048
:1007400027E6A90027A6A9000080FA0000000600FD
:100750001200FA00000F980035318000F4CF2F000E
:10076000048262003431880035318000043020007A
:10077000048272003431880024318000040F780034
:100780002431800014079800243180002407980049
:1007900035318000F4CF2F000482620034318800AC
:1007A000353180000430200004827200343188002A
:1007B00024318000440798002431800054079800B9
:1007C0002431800064079800AE4290002E4A9000C9
:1007D00084CF5200E0FF3A002E4290008E0A900033
:1007E000944298003E4290008E0A9000A4429800E5
:1007F0005E4290008E0A9000844A78001E42780083
:100800008E0A9000B44298000080FA0000000600B2
:100810001200FA00000F980035318000F4CF2F004D
:1008200004826200343188003531800004102000D9
:10083000048272003431880024318000240798003B
:10084000243180003407980035318000F4CF2F0028
:1008500004826200343188003531800004102000A9
:1008600004827200343188002431800064079800CB
:100870002431800074079800EE4290006E4A900088
:1008800084CF5200E4FF3A004E4290008E0A90005E
:10089000B44298007E4290008E0A9000A4429800D4
:1008A0006E4290008E0A9000944298000080FA00F8
:1008B000000006001600FA00100F9800210F9800A3
:1008C0000002EB00140798001E0A900024429000DA
:1008D000F24F520012003E001E0A90002442900087
:1008E000E04F52000E0032001E0A90009442900029
:1008F00014C3B30084CF520009003E001E0A9000CA
:1009000014429000E04F5200050032001E0A900091
:10091000B442900094C9B30084CF52000200360064
:100920000002EB00700037001E0A90003442900075
:10093000045798001E0A900014429000644F9800DB
:100940001E0A900024429000744F98002E0A9000D6
:10095000E00F52000E003200140280004522DE003B
:1009600067426200044F78009402800024079800D8
:10097000FF3FFC00140280000450A0000460A000AF
:100980000470A000140288002E02900094028800D7
:10099000343180004D22DE00614262000482FB009F
:1009A000340798003E029000E00F520001003A0028
:1009B00067010700343180004F22DE0004427800D6
:1009C0000482FB00440798004E029000E00F5200A2
:1009D00006003200143180004F22DE00044278000D
:1009E0000482FB001407980027E6A9003531800037
:1009F000F4CF2F000482620034318800353180004A
:100A000004102000048272003431880024318000F8
:100A1000640798001E0A900014427800544F980012
:100A200035318000F4CF2F00048262003431880019
:100A30003531800004302000048272003431880097
:100A40000E0A9000243188007E0290002431880034
:100A50006E029000243188004E029000E00F520098
:100A60000A00320027E6A8001E029000E00F5200A4
:100A70000100320023E6A8003E029000E00F520081
:100A80000600320032010700040037003E029000E9
:100A9000E00F520001003A0027A6A9002E0A90009C
:100AA000E00F52000F0032009402800054079800BB
:100AB000FF3FFC009E42780067C262000482FB0098
:100AC000670262004522DD0016028000F5F12F006A
:100AD0008502630004827200140288005E029000A6
:100AE0009402880014002000040078000080FA00BE
:100AF000000006001400FA00000F9800110F980083
:100B00000002EB00140798000E0A9000A442900027
:100B100094C5B30084CF52000A003E000E0A900034
:100B20009442900094C5B30084CF520005003E006B
:100B30000E0A9000B442900044C2B30084CF520029
:100B4000020036000002EB006B0037000E0A900036
:100B500024429000744F98000E0A900014429000B6
:100B6000644F98001E0A9000E00F52000E00320001
:100B7000140280004522DE0067426200044F7800C4
:100B80009402800024079800FF3FFC0014028000BC
:100B90000450A0000460A0000470A00014028800AB
:100BA0002E02900094028800343180004D22DE0035
:100BB000614262000482FB00340798003E0290000C
:100BC000E00F520001003A00E100070034318000DC
:100BD0004F22DE00044278000482FB0044079800A4
:100BE0004E029000E00F52000600320014318000E7
:100BF0004F22DE00044278000482FB0014079800B4
:100C000027E6A90035318000F4CF2F00048262006E
:100C100034318800353180000410200004827200D5
:100C20003431880024318000640798000E0A900057
:100C300034429000444F980035318000F4CF2F00AB
:100C400004826200343188003531800004102000B5
:100C500004827200343188006E02900024318800D2
:100C60007E029000243188004E029000E00F520076
:100C70000A00320027E6A8001E029000E00F520092
:100C80000100320023E6A8003E029000E00F52006F
:100C900006003200AE000700040037003E0290005C
:100CA000E00F520001003A0027A6A9001E0A90009A
:100CB000E00F52000F0032009402800054079800A9
:100CC000FF3FFC009E42780067C262000482FB0086
:100CD000670262004522DD0016028000F5F12F0058
:100CE0008502630004827200140288005E02900094
:100CF0009402880014002000040078000080FA00AC
:100D0000000006001000FA006007980071079800C4
:100D10000002EB00040F78006E029000F442900095
:100D200094C5B30084CF520024003E006E029000B0
:100D3000E442900094C5B30084CF52001F003E00EF
:100D40006E02900054429000E64F52001B003E009D
:100D50006E029000C442900044C2B30084CF52009F
:100D600016003E006E02900034429000F24F520096
:100D700012003E006E02900034429000E04F52009C
:100D80000E0032006E029000A442900014C3B30023
:100D900084CF520009003E006E0290002442900071
:100DA000E04F5200050032006E029000944278003D
:100DB00094C9B30084CF5200020036000002EB0059
:100DC000600037007E029000E00F52000E003200FB
:100DD000140280004522DE0067426200244798002A
:100DE0009402800024079800FF3FFC00140280005A
:100DF0000450A0000460A0000470A0001402880049
:100E00002E02900094028800343180004D22DE00D2
:100E1000614262000482FB00340798003E029000A9
:100E2000E00F520001003A00490007003431800011
:100E30004F22DE00044278000482FB004407980041
:100E40004E029000E00F5200060032001431800084
:100E50004F22DE00044278000482FB00040F780079
:100E600027E6A90035318000F4CF2F00048262000C
:100E70003431880035318000043020000482720053
:100E8000343188006E02900014027800243188000A
:100E90006E02900014029000243188006E029000CF
:100EA00024029000243188006E02900034029000E9
:100EB000243188004E029000E00F52000A003200F8
:100EC00027E6A8001E027800E00F52000100320061
:100ED00023E6A8003E029000E00F52000600320018
:100EE0001B000700040037003E029000E00F520094
:100EF00001003A0027A6A9007E029000E00F5200F0
:100F00000F0032009402800054079800FF3FFC005D
:100F10002E429000674262000482FB00670262007A
:100F20004522DD0016028000F5F12F0085026300E6
:100F300004827200140288005E029000940288000D
:100F400014002000040078000080FA000000060071
:100F50000600FA00881F7800140280004522DE0097
:100F600067426200044F78009402800014079800E2
:100F7000FF3FFC00140280000450A0000460A000A9
:100F80000470A000140288001E02900094028800E1
:100F900058052000383B8800A80A2000383B88000C
:100FA00027A6A8009402800024079800FF3FFC00B9
:100FB0009E42780067C262000482FB006702620002
:100FC0004522DD0016028000F5F12F008502630046
:100FD00004827200140288002E029000940288009D
:100FE0004F0478000080FA0000000600839F68002C
:100FF0000100E00002003D0060001000E0801800E9
:101000000300E00002003D0060011100E0811900D2
:10101000050007004F00E00002003B0060001000E8
:10102000E0801800000006006022B80006022000E0
:101030000000D0008180D2000482D2008582D200DC
:101040000000A0000202520083825A000300310017
:101050000202420083824A000000A1000603E90068
:10106000F3FF3A0000000600889FBE008A9FBE0082
:101070003004BE002005BE000404440085844C00FA
:1010800006054D0087854D000898BE000A90BE00F9
:101090000440E10005C8E10006D0E10007D8E10006
:1010A00002003100680040001008E8004F05BE0053
:1010B0004F04BE00000006001000FA00889FBE002A
:1010C0008A9FBE000605BE000404BE003002BE00BA
:1010D0002003BE00C4B79F00D5B79F00E6B79F00AE
:1010E000F7B79F000802520089825A000A035B008A
:1010F0008B835B0084BF9F0095BF9F00A6BF9F00AE
:10110000B7BF9F000498BE000698BE0011002000E3
:101110004FB29700DFB297006FB39700FFB397000D
:101120000820E10009A8E1000AB0E1000BB8E100E5
:10113000010039008000EB00108810004F05BE0050
:101140004F04BE000080FA00000006001400FA0000
:10115000889FBE008A9FBE008C9FBE003F00070094
:101160000605BE000404BE000006EB00CCB79F00DD
:10117000BCB79F00ACB79F009CB79F008CB79F0087
:101180000D0420004FB39700BFB2970086034300C1
:101190002FB29700E00F530004003D003D00070010
:1011A0000F004000B0FF07000300370039000700C0
:1011B0000F004000C0FF0700CFB2970095BF9F000F
:1011C000E08F5200090035002B00070014002000BA
:1011D000050020006033B8000000720081807200BA
:1011E00002017300838173001C0007000C06E800F5
:1011F0008D0F5600E3FF3A001FBA9700E00F520030
:1012000005003D000802BE000A03BE0000FE2F00DC
:101210000F00400094FF07004FAA9700E00F520014
:1012200008003A000FB497009FB497002FB59700BD
:10123000BFB59700D8B79F00E9B79F00FAB79F00E6
:101240008BBF9F000C0007004F06BE004F05BE007D
:101250004F04BE000080FA000000060001000700F5
:101260000000060090B79F00A1B79F00B2B79F0093
:10127000C3B79F0000000600010007000000060041
:101280001FB09700AFB097003FB19700CFB1970064
:10129000000006004F2BDE0087037300A7B79F00F6
:1012A0004F23DE00858242008502730095B79F00C0
:1012B000FFAA97004F2BDE000402420004027300D5
:1012C00084B79F006FAA97004F23DE0085824200FB
:1012D00085027300F5AF9F00E9FF07004F18DE009D
:1012E0000402420000027200E4AF9F00E4FF070026
:1012F00000004000818048000201490083814900CC
:10130000D8FF07000802BE000A03BE0000FE2F003F
:1013100000000600881F780018002000881F780051
:101320008AFF07008F87E9004F047800000006005D
:10133000801FEB0085FF07008F87E9000000060093
:10134000889FBE008A9FBE00E00F5000E08F5800CB
:10135000E00F5900E08F59000C003D006044B800D8
:101360006055B8000000540081805C0002015D00FF
:1013700083815D00180020001500070008003D0073
:10138000180007000004EB00050037000004EB0024
:101390000F00070002003D001200070018002000A7
:1013A000DCFF0700E00F5400060032006022B800A6
:1013B0006033B8000000520081805A0002015B00D7
:1013C00083815B004F05BE004F04BE000000060095
:1013D000E00F5200E08F5A00E00F5B00E08F5B00EF
:1013E000000006006044B8006055B80004025400D4
:1013F00085825C0006035D0087835D0000000600B7
:10140000889FBE008A9FBE008C1F7800E00F5000AE
:10141000E08F5800E00F5900E08F59000D003D00AB
:101420006044B8006055B8000000540081805C0042
:1014300002015D0083815D001C0020000820E100A6
:1014400009A8E1000AB0E1000BB8E1000D003D0081
:10145000080037000006EB00E00F5200E08F5A0052
:10146000E00F5B00E08F5B0006003D006044B800C9
:101470006055B8000402540085825C0006035D00DC
:1014800087835D00AAFF0700E00F560006003200C8
:101490006022B8006033B8000000520081805A001A
:1014A00002015B0083815B004F0678004F05BE00A0
:1014B0004F04BE0000000600889FBE008A9FBE0049
:1014C0008C1F78000006EB00E00F5000E08F580002
:1014D000E00F5900E08F590007003D006044B8005C
:1014E0006055B8000000540081805C0002015D007E
:1014F00083815D001C002000E00F5200E08F5A0045
:10150000E00F5B00E08F5B0007003D006044B80027
:101510006055B8000402540085825C0006035D003B
:1015200087835D000C00A2000C000700E00F56004E
:10153000060032006022B8006033B800000052009C
:1015400081805A0002015B0083815B004F067800B6
:101550004F05BE004F04BE0000000600889FBE007D
:101560008A9FBE008C9FBE000404B8000506B80028
:101570008904460060854E000606B8000A0546004C
:10158000E0854E000706B8008B054600040EB80043
:10159000890446000A854E00E0854D00050EB8001E
:1015A0000A0546008B854E00060EB8008B054600E6
:1015B0000416B8000A0546008B854E000516B800D3
:1015C0008B054600041EB8008B0546000800BE00CF
:1015D0000A01BE004F06BE004F05BE004F04BE000C
:1015E0000000060006C2B300000278000400780084
:1015F000B042780086CF5200FBFF3200E9CF5200A4
:10160000F9FF3200D6C2B30086CF520003003A0081
:101610000002780016C0B300050037000043EB005D
:10162000B7C2B30087CF520001003A000002780031
:101630000000EB00020037006A00B90000804200A1
:10164000B402FB000503B100E98F5200FAFF360037
:10165000E04F5300010032000000EA0000000600E5
:101660000002780002003700015A78000201E90008
:10167000E00F5100FCFF3A00000006000002780075
:10168000B1427800055A7800E0CF5200FCFF3A00E2
:1016900000000600000278008042EB00B4CF120088
:1016A000FDFF3A000080EA00000042000000060052
:1016B0000B00370030427800E04F52000300320048
:1016C0000201E900B14F5200050032000480FB0026
:1016D000954278008582FB0005005000000006005E
:1016E00081027800E00F5100F2FF3A00020078001A
:1016F0000000060000027800060037000201E90041
:1017000031437800065A780084027800E04F530095
:101710000600320084027800E00F5100F7FF3A0023
:1017200002003700805AEB000201E900E00F51008F
:10173000FCFF3A00000006000C00FA00889FBE0083
:1017400000047800F4FF2700D4BF9F008004EB0062
:1017500099BF9F0088BF9F00A8BF9F00240C200056
:10176000B4BF9F0078815700CFB0970070805700BA
:10177000070007000FBA9700094A78000FBA9700D0
:10178000080052004F04BE000080FA00000006006E
:10179000EF03B000889FBE008A9FBE008C9FBE00F2
:1017A0008E1F780080067800D1AF9F00A2B79F00FF
:1017B0000007EB006A033700DFA897008100E8000C
:1017C000D1AF9F0054C2B300844F500006003A00CE
:1017D000010278000006EB0001C3B30000C2B300B1
:1017E000B7C2B3000E0037003D0290000404B200FF
:1017F000040032001D027800004A7800840EE800E0
:10180000050037000000FB008D0078006003070032
:10181000E10F4000520332000E07E800500337008A
:101820008402780034437800D2C2B300824F530060
:101830000900320005003C00804F530008003200D0
:10184000874F53000C003A0007003700814F5300C8
:1018500009003A00060037000C30A000F0FF370006
:101860000C00A000EEFF37000C10A000ECFF3700CA
:101870000C20A000EAFF370062026600010032007F
:101880000C00A10068026600010032000C20A100DB
:101890000602FB000403B100E90F52000C003E00F9
:1018A000050378000002EB006A22B900B603FB00D2
:1018B0000703B10004824300860278009603FB0010
:1018C0000703B100E98F5300F7FF36000800370027
:1018D0000002EB00A7C2B300874F530004003A0098
:1018E000AFB1970043027800A3B79F008502E800DC
:1018F0000003EB0096B79F00E6C2B300954F1300BC
:101900000C003A000CE0A00064435300D54F1300D4
:1019100003003200050378000000EB0009003700E7
:10192000AFB3970047047800A7B79F0098B79F0010
:101930008502E80005037800090037006A00B90055
:101940000080430086027800B603FB000703B10065
:10195000E98F5300F9FF360090B79F00F5FF37007D
:10196000B6427800D6AF9F00CAC6B3008ACF5200F5
:10197000250032000F003C0036C6B30086CF52006F
:101980009C00320004003C00E0CF5200F90232001B
:101990006B4353000F00370046C6B30086CF52009A
:1019A000170032006543430086CF5200AF003A0073
:1019B0001300370036C7B30086CF52001F00320035
:1019C00007003C006443530086CF520014003200ED
:1019D0000643E80086CF5200A4003A001300370007
:1019E00056C7B30086CF5200A700320063434300BE
:1019F00086CF52009D003A00E5779F000D0037002A
:101A0000E5779F00A2003700F00366000501200083
:101A1000010032000500280005067600D0FF3700DF
:101A2000E5779F000C60A00099003700E5779F00E4
:101A30000C50A0000C70A00095003700E5779F00C7
:101A4000AFB59700CB027800ABB79F00B5B79F004A
:101A5000E08F520002003A00A1162100B1B79F00AA
:101A60003FB397008002EB00010037008502E800D9
:101A7000E6C37A00E0CF5300FCFF3A00C5B79F00F1
:101A80001FB19700E00F510005003200CFB1970061
:101A9000830F51000200310082027800C5B79F0019
:101AA000CFB297000004EB00850F52000100360012
:101AB000050452006806660009C2B3000F00320038
:101AC000290037003D0290000404B20004003200F7
:101AD0001D027800094A7800840EE80005003700EE
:101AE0008D00780000022000A9020700E10F4000ED
:101AF000010032000E07E8000804E900E00F54007E
:101B0000F0FF3A000084EB0017003700BD029000A0
:101B10000504B200090032009D03780088027800B5
:101B200035437800864B7800870EE800050478007E
:101B3000E04F53000A003A00100037008802780096
:101B40003500FB00050478008D00780084BF9F00FD
:101B50008F0207000FBA9700E10F40000700320024
:101B60000E07E80005003700080278003FB4970030
:101B7000CFB497005FB59700EFB597008902780062
:101B80008504E900E08F5200E0FF3A00B8B79F00FB
:101B9000C9B79F00DAB79F00EBB79F000404780035
:101BA00009C2B300E00F56000F003A006C02370084
:101BB0003D0290000404B200040032001D027800CF
:101BC000094A7800840EE800050037008D0078008F
:101BD000000220006E020700E10F40000100320009
:101BE0000E07E8000804E900E00F5400F0FF3A0097
:101BF0005B023700AFB0970041047800A1B79F00A7
:101C0000CFC4DE00090578008A0578000800BE0010
:101C10000A01BE004800DE00C80ADD000080720034
:101C2000E0779F007003660009003200E04F50002B
:101C300007003200E14F400005003200F0779F00BE
:101C4000887F9F0026002000C6B79F000300370052
:101C5000F8779F0017002000C7B79F0078FB2F0080
:101C600008844700B8B79F0085FF3700E5779F00DD
:101C700069FB2F0089844700B9B79F001A00200034
:101C8000CAB79F007EFF3700E5779F000C0CB300BA
:101C90008C027800050CB2003B003A00E00F5600C1
:101CA00005003D00AFB297004501BE004500BE00F3
:101CB000A5B79F000F003700F00266001200320047
:101CC0002FB497004803BE00A8B79F00F69F9F005F
:101CD00087A79F0098029000CFAADE0095A79F00DB
:101CE000A5A79F007F9897008FA097001FA197003E
:101CF000AFA19700B0B79F00C1B79F00D2B79F00B8
:101D0000E3B79F000B003700AFB09700C102780027
:101D1000A1B79F0005047800CFC4DE000905780054
:101D20008A057800B8B79F00C9B79F00DAB79F004F
:101D3000EBB79F003FB09700CFB097005FB197001F
:101D4000EFB19700E00F5000E08F5800E00F59000E
:101D5000E08F590032003D003C00B3006000B80045
:101D60006011B8003FB49700CFB497005FB59700FB
:101D7000EFB5970008045000898458000A055900FF
:101D80008B85590022003700E00F560005003D000A
:101D9000AFB297004501BE004500BE00A5B79F0049
:101DA0000F003700F0026600120032002FB49700D7
:101DB0004803BE00A8B79F0096AF9F00A7AF9F0043
:101DC0008004EB00B9AF9F000005EB00CAAF9F0095
:101DD0001FA89700AFA897003FA99700CFA9970029
:101DE000B0B79F00C1B79F00D2B79F00E3B79F0075
:101DF0000B003700AFB09700C1027800A1B79F0079
:101E000005047800090020000A0020000B002000D3
:101E1000B8B79F00C9B79F00DAB79F00EBB79F0024
:101E20009FB49700E08F54000D003A001A00200084
:101E30009AB79F003FB09700CFB097005FB197006F
:101E4000EFB19700E00F5000E08F5800E00F59000D
:101E5000E08F5900020032008000EB0091B79F0034
:101E60000C017800020CB20082B79F00050420002C
:101E7000850F51003400320003003C00E00F510098
:101E80000800320048003700050820008FB1970095
:101E9000858F510014003200050C2000858F510001
:101EA00041003A00060B210015C0B3003600BE0009
:101EB0003601BE003FB49700CFB497005FB59700DE
:101EC000EFB597000040E10001C8E10002D0E10059
:101ED00003D8E100330039008542E800F4CF520016
:101EE000F2FF3A002F00370015C0B30000012000B8
:101EF000010020006011B8003FB49700CFB49700F4
:101F00005FB59700EFB597000040E10001C8E10020
:101F100002D0E10003D8E10022003900490020008E
:101F20000000D0008180D2000281D2008381D200E3
:101F30008904E900FAFF3A008542E800F0CF520038
:101F4000EDFF3A001700370015C0B30080002000F5
:101F5000010020006011B8003FB49700CFB4970093
:101F60005FB59700EFB597000040E10001C8E100C0
:101F700002D0E10003D8E1000A0039003900200056
:101F80000000D0008180D2000281D2008381D20083
:101F90008904E900FAFF3A008542E800F5CF5200D3
:101FA000EDFF3A00E5779F006F7597008A02FB000E
:101FB0009FB597008B8F520002003D00EB779F008A
:101FC000040037001FB09700850F500001003D004E
:101FD00095B79F00E00F520003003200E302660055
:101FE000010032000402E9000500240085026600B9
:101FF000060032009FB09700810F520002003400AB
:1020000001025200010037000002EB006F719700DF
:102010008202FB008001EB00F3AF9F00850F5200AE
:102020000200340085025200F5AF9F006402660092
:102030003B003200E202660061026600E08F52005F
:1020400011003200BD0290000504B2000800320009
:102050009D027800B6C2B300E00F520001003200CA
:1020600006C3E800864A7800850EE80015003700B0
:10207000B0022000E00F5200010032000080E800B2
:102080008D0078000C003700E00F52000E00320087
:102090003D0290000404B200050032001D027800E9
:1020A00005C2B300054A7800840EE8000500370039
:1020B0008D0078000002200035010700E10F40008C
:1020C000010032000E07E8007FAA9700E00F5200DF
:1020D0004F00320008C3B300840478003D02900032
:1020E0000404B200040032001D027800084A78009F
:1020F000840EE800050037008D0078000003200002
:1021000023010700E10F4000010032000E07E80044
:102110008904E900F1FF3A00F9AF9F003C00370065
:10212000FFAA9700E08F5200140032006802660098
:1021300012003A0008C2B300850478003D02900006
:102140000404B200040032001D027800084A78003E
:10215000840EE800050037008D00780000022000A2
:102160000B010700E10F4000010032000E07E800FC
:102170008904E900F1FF3A00F9AF9F00E20266002E
:1021800061026600E08F520011003200BD02900033
:102190000504B200080032009D027800B6C2B30008
:1021A000E00F52000100320006C3E800864A7800C2
:1021B000850EE80015003700B0022000E00F520045
:1021C000010032000080E8008D0078000C0037002C
:1021D000E00F52000E0032003D0290000404B200F5
:1021E000050032001D02780005C2B300054A7800E0
:1021F000840EE800050037008D0078000002200002
:10220000E3000700E10F4000010032000E07E80084
:102210001FB397000602E900C223DD00C7A79F0095
:102220006323B90006047800B8A79F004322DD00AD
:10223000850A210085024200E5AF9F00F004660098
:10224000E99F9F000C0578000A02B200DA9F9F0008
:10225000AA0037009FB597008B05E9009BB79F0048
:102260000FB0970001042000810F50007A00320067
:1022700003003C00E00F50000800320085003700EA
:10228000040820000FB19700840F51005D00320058
:10229000040C2000840F51007E003A00E00F56002D
:1022A0001F003D00EFA997003304BE002305BE00C8
:1022B0000802BE000A03BE003FB09700CFB09700EF
:1022C0005FB19700EFB1970012FC0700E0779F0025
:1022D0000000FB00CF80DE00010178008201780061
:1022E0000802BE000A03BE0073FC07003FB297005D
:1022F000CFB297005FB39700EFB397000002520090
:1023000081825A0002035B0083835B00B4B79F00A5
:10231000C5B79F00D6B79F00E7B79F0035003700CD
:10232000EF9A9700E08F5200220032003FB29700F0
:10233000CFB297006FAB97003604BE002605BE00F3
:102340000801BE000400BE0084BF9F00F5B79F00D7
:1023500035FB0700E0779F000000FB00CF80DE0028
:102360000801BE00420107000FBA9700FFB29700B4
:102370000004520081845A00D8A79F00E9A79F005B
:102380008004EB00F9A79F000005EB008AAF9F00D7
:102390005FA09700EFA097007FA197008FA99700FB
:1023A000B0B79F00C1B79F00D2B79F00E3B79F00AF
:1023B00010003700EFA89700110278003FB1970096
:1023C00080027800811F7800110009000481D80084
:1023D0008002FD00CF007800A4002000809FBE0096
:1023E000110009008482D800010278004F00BE006D
:1023F000E4779F00EF7197000343B000E3779F00FD
:102400002400370094152100DF9A9700E08F5200D6
:1024100001003200841421003FB09700CFB0970034
:102420005FB19700EFB197004FA397000603E90053
:10243000050033008301D1000281D3008180D300E5
:102440000080D300F9FF37006F006000644078001F
:10245000E0779F000F0037003FB29700CFB29700A0
:102460005FB39700EFB397003FA497000804E9001B
:10247000050033008703D1000683D3008582D30093
:102480000482D300F9FF3700674262000443B000C2
:10249000E4779F003D0290000404B2000700320080
:1024A0009D0278006F729700844A7800850EE800DC
:1024B000E04F520007003A0007003700EF74970022
:1024C0000900FB008D00780031000700E10F40009B
:1024D000010032000E07E8004FA597006405550083
:1024E000CAA79F00BFA59700E3855500BBA79F0023
:1024F0006FA8970068005000E0AF9F009FB0970062
:10250000E08F500053FF3A00680666001400320066
:102510007FA99700E00F51001100340008C2B300FA
:10252000820478003D0290000404B20004003200EE
:102530001D027800084A7800840EE8000500370084
:102540008D0078000002200011000700E10F40001C
:10255000010032000E07E8008904E900F1FF3A00AB
:10256000DFA9970013407800E0779F00E04F50000C
:1025700091FC3A000E0078004F0778004F06BE002D
:102580004F05BE004F04BE00EF03B100000006007F
:10259000889FBE000104780038029000E2026200C9
:1025A0008084EB003B003200040378000620B20078
:1025B0009802900002003A00E08F520035003A0085
:1025C0000490A0003404980080047800F90FB20051
:1025D000E08F520002003A00A8029000050C78003B
:1025E000EA8F540005003A000408B20003003A00E4
:1025F00088007800D0002000E5FF07001802900056
:10260000D8029000850F52000B0032000402E8004F
:102610001404980018027800094A7800040CE800B5
:1026200015C0B30084192100054A7800EA8F5400D0
:1026300018003A000500370088007800094078004B
:10264000170007008004780012003700380290005D
:102650000410B2000F00320018019000A800900092
:10266000480090005200070018029000840F5000AC
:1026700004003200380290000403B30034049800D0
:102680008084EB000002EB00140498002802900004
:10269000040C7800090078004F04BE00000006001A
:1026A0000200FA00889FBE00A0FF9F00010478008E
:1026B00038029000840278000504B2000200320063
:1026C0000000FB0035003700E202620005003A001E
:1026D0000403B30034049800150498000080EB0054
:1026E0002E003700D8049000E08F540006003A0016
:1026F00012002000E6805700480090002C000700E0
:102700001904980023003700A8029000E08F5200BF
:1027100008003A00B519210025049800050C78003E
:102720002500200055049800150498000430A000EE
:102730003404980018019000A80090004800900010
:102740001B000700280290008082EB00150498000F
:10275000AFFA9700054A7800040CE8002FFA9700BA
:10276000EA4F52000B003A00380290000410B20009
:102770000800320018019000A80090004800900066
:102780000B0007000002EB0014049800A802900060
:10279000050C78002FFA97000400FB004F04BE00E0
:1027A0000080FA000000060000C0DA000000060009
:1027B0000A00FA00E20F500022003E00F48C800074
:1027C000E10F52000600320087232000462320003C
:1027D0002423200005232000E08F530004003A004A
:1027E00087222000462220002422200005222000EB
:1027F000000028001500600003003A00800B7800FC
:1028000007002800958A730005402000948262002A
:1028100001003A0014A0A0008202780006003700F0
:10282000940378000710B200FDFF3200B103FB00F3
:10283000070B78008502E900E08F5200F8FF3A00AC
:102840000800370034002000B4BF9F00C0BF9F00C5
:10285000D1BF9F00E2BF9F006A805700D2FF0700F0
:102860006FB99700020078000080FA0000000600AF
:10287000020AB900001BB9000200B8008100420042
:102880008100430000000600000000001C00000062
:102890007E0000001B0000001094000001000000FA
:1028A00010CA00000100000011000000020000003A
:1028B000115100000200000005A20000020000000B
:1028C00006BD0000020000000AD80000020000005F
:1028D0000B0E0000030000000B440000030000008A
:1028E000107A00000300000010B000000300000098
:1028F00006E60000030000000701000004000000DD
:10290000071C0000040000000A370000040000005B
:10291000096D00000400000005A300000400000091
:1029200008BE00000400000005D9000004000000FB
:102930000BF40000040000000B2A0000050000005A
:102940000B600000050000000B9600000500000071
:102950000BCC0000050000000B0200000600000088
:102960000B380000060000000B6E0000060000009F
:102970000BA40000060000000BDA000006000000B7
:102980000B100000070000000546000007000000D3
:1029900005610000070000000A7C0000070000003D
:1029A0000AB20000070000000AE80000070000006B
:1029B0000A1E000008000000135400000800000078
:1029C0000EA50000080000000CDB0000080000005D
:1029D0000C110000090000000E4700000900000073
:1029E0000B7D0000090000000BB30000090000008F
:1029F0000DE90000090000000F1F00000A000000A0
:102A0000075500000A000000077000000A000000DF
:102A10000D8B00000A0000000BC100000A0000003E
:102A200013F700000A0000000F4800000B00000030
:102A30000E7E00000B0000000CB400000B00000034
:102A40000EEA00000B0000000D2000000C0000004A
:102A50000B5600000C0000000D8C00000C00000064
:102A60000FC200000C0000000FF800000C00000076
:102A7000142E00000D0000000E7F00000D0000006D
:102A80000EB500000D0000000CEB00000D00000072
:102A9000072100000E0000000B3C00000E000000AB
:102AA000087200000E0000000B8D00000E000000F8
:102AB0000BC300000E00000007F900000E0000002C
:102AC0000B1400000F0000000C4A00000F00000073
:102AD0000A8000000F0000000CB600000F0000008C
:102AE0000BEC00000F0000000722000010000000A7
:102AF0000C3D0000100000000D73000010000000ED
:102B000006A900001000000006C40000100000002C
:102B10000CDF00001000000006150000110000008E
:102B200014300000110000000D81000011000000B1
:102B30000CB70000110000000CED000011000000B7
:102B40000C230000120000000959000012000000D0
:102B5000098F00001200000008C5000012000000EC
:102B60000CE00000120000000B1600001300000033
:102B7000104C0000130000000C8200001300000045
:102B80000BB80000130000000AEE00001300000064
:102B90000824000014000000053F0000140000009D
:102BA000085A0000140000000B750000140000001B
:102BB00000000000000000000000000000300000E5
:102BC00000380000003C0000003E0000003F000014
:102BD000803F0000C03F0000E03F0000F03F0000E9
:102BE000F83F0000FC3F0000F83F0000F03F00000D
:102BF000E03F0000C03F0000803F0000003F0000B9
:102C0000003E0000003C00000038000000300000E2
:102C100000000000000000000000000000000000B4
:102C200000000000000000000C0000001C0000007C
:102C30003C0000007C000000FC000000FC010000E3
:102C4000FC030000FC070000FC0F0000FC1F00005C
:102C5000FC3F0000FC1F0000FC0F0000FC07000010
:102C6000FC030000FC010000FC0000007C000000F0
:102C70003C0000001C0000000C00000000000000F0
:102C80000000000000000000000000000000000044
:102C90000000000000000000000000000100000033
:102CA000800300000080000003000000800300009B
:102CB00000C0000007000000C007000000E00000A6
:102CC0000F000000E00F000000E000000F00000017
:102CD000F01F000000F000001F000000F01F0000C7
:102CE00000F800003F000000F83F000000F800007E
:102CF0003F000000FC7F000000FC00007F0000009F
:102D0000FC7F000000FE0000FF000000FEFF00004E
:102D100000FE0000FF0000000000000000000000B6
:102D200000000000000000000000000000000000A3
:102D3000000000000000000000000000FEFF000096
:102D400000FE0000FF000000FEFF000000FC00008D
:102D50007F000000FC7F000000FC00007F000000FE
:102D6000F83F000000F800003F000000F83F0000BE
:102D700000F000001F000000F01F000000F0000045
:102D80001F000000E00F000000E000000F00000046
:102D9000E00F000000C0000007000000C0070000B6
:102DA000008000000300000080030000008000009D
:102DB000030000000001000000000000000000000F
:102DC0000000000000000000000000000000000003
:102DD00000000000000000000000000000000000F3
:102DE00000000000000000000000000000000000E3
:102DF00000000000000000000000000000000000D3
:102E00000000000000000000080C00000C0C000096
:102E10000C0C00000C0C00000C0C00000C0C000052
:102E2000040000000C0C00000C000000000000007A
:102E30000000000000000000000000000000000092
:102E400000000000CC000000CC000000CC0000001E
:102E5000CC000000CC000000CC000000CC00000042
:102E6000C40000000000000000000000000000009E
:102E70000000000000000000000000000000000052
:102E80000000000000000000000000000000000042
:102E90000000000000000000000000000000000032
:102EA0000000000000000000000000000000000022
:102EB00000000000000000000000000060020000B0
:102EC000200300002001000020010000FC0700009A
:102ED000900100009000000098000000FE03000038
:102EE000480000004C0000004400000064000000A6
:102EF00000000000000000000000000000000000D2
:102F000000000000000000000000000000000000C1
:102F100000000000000000000000000000000000B1
:102F20006000000060000000F80100006C03000079
:102F300066010000660000006E0000007C000000DA
:102F4000F8010000E0010000E00300006003000061
:102F5000620300006203000066010000FC00000044
:102F600060000000600000000000000000000000A1
:102F70000000000000000000000000000000000051
:102F80000000000000000000000000000000000041
:102F9000000000003830000024180000660C00001B
:102FA000660400006606000066030000A40100003D
:102FB0009C380000C06400006066000020660000CD
:102FC00010660000182400000C1C00000000000027
:102FD00000000000000000000000000000000000F1
:102FE00000000000000000000000000000000000E1
:102FF0000000000000000000E001000030030000BD
:1030000018030000180300001801000098010000D8
:1030100078000000787E00007C1C0000CC180000C6
:10302000C6190000861B0000060F0000060E0000F7
:103030000C1A0000F8710000000000000000000001
:103040000000000000000000000000000000000080
:103050000000000000000000000C00000C0C00004C
:103060000C0C00000C0C000004000000000000002C
:103070000000000000000000000000000000000050
:1030800000000000000000000000000000600000E0
:1030900030100000080C00000C04000006060000C0
:1030A000060600000606000006060000040C0000EC
:1030B0000C08000018300000600000000000000054
:1030C00000000000030600000C08000018180000B3
:1030D0001030000030300000303000003030000090
:1030E000301000001818000008040000060300005B
:1030F00000000000000000000000000000300000A0
:10310000003000000022000001AE00000378000043
:103110000078000000AE0000012200000130000035
:10312000003000000000000000000000000000006F
:10313000000000000000000000000000000000008F
:10314000000000000000000000000000000000007F
:10315000000000000000000000000000000000006F
:10316000000000000000000000000000000000005F
:10317000000000000000000000000000000000004F
:1031800000000000000000000030000000300000DF
:103190000030000000FE00000130000000300000A0
:1031A00000300000003000000000000000000000BF
:1031B000000000000000000000000000000000000F
:1031C00000000000000000000000000000000000FF
:1031D00000000000000000000000000000000000EF
:1031E00000000000000000000000000000000000DF
:1031F0000E0F00000C0C0000040200000000000094
:1032000000000000000000000000000000000000BE
:1032100000000000000000000000000000000000AE
:103220007E00000000000000000000000000000020
:10323000000000000000000000000000000000008E
:10324000000000000000000000000000000000007E
:103250000000000000000000000000000C0C000056
:103260000C00000000000000000000000000000052
:103270000000000000000000000200000003000049
:1032800000010000800100008001000080000000BB
:10329000C0000000C00000006000000060000000EE
:1032A000200000003000000030000000100000008E
:1032B00018000000180000000C0000000C000000C6
:1032C00004000000060000000600000002000000EC
:1032D00000000000000000000000000000000000EE
:1032E00000000000000000000000000000000000DE
:1032F00000000000F0000000C80100008C01000088
:10330000840300000603000006030000060300001B
:10331000060300000603000006030000060100008B
:103320000C0100008C000000700000000000000094
:10333000000000000000000000000000000000008D
:10334000000000000000000000000000000000007D
:10335000000000000000000000000000000000006D
:1033600060000000780000006400000060000000C1
:1033700060000000600000006000000060000000CD
:1033800060000000600000006000000060000000BD
:1033900060000000FC0300000000000000000000CE
:1033A000000000000000000000000000000000001D
:1033B000000000000000000000000000000000000D
:1033C0000000000000000000000000007800000085
:1033D000C40100008601000082010000800100009D
:1033E000C0000000C00000006000000030000000CD
:1033F00030000000180000000C0100000601000071
:10340000FE010000000000000000000000000000BD
:1034100000000000000000000000000000000000AC
:10342000000000000000000000000000000000009C
:103430000000000000000000F8000000CC010000C7
:1034400086010000800100008001000040000000B3
:10345000F0000000800100000003000000030000F5
:103460000003000000030000860100007800000057
:10347000000000000000000000000000000000004C
:10348000000000000000000000000000000000003C
:10349000000000000000000000000000000000002C
:1034A00000000000C0000000E0000000E00000009C
:1034B000D0000000D8000000C8000000C4000000D8
:1034C000C6000000C2000000FF030000C0000000B2
:1034D000C0000000C0000000F00300000000000079
:1034E00000000000000000000000000000000000DC
:1034F00000000000000000000000000000000000CC
:1035000000000000000000000000000000000000BB
:1035100000010000FC0000000400000004000000A6
:10352000060000007E000000C200000080010000D4
:103530008001000080010000800100008000000088
:10354000C30000003C00000000000000000000007C
:10355000000000000000000000000000000000006B
:10356000000000000000000000000000000000005B
:1035700000000000000000000000000080010000CA
:103580006000000018000000080000000C000000AF
:10359000F60000008E010000060300000603000094
:1035A00006030000060300000C0100008C0100006F
:1035B000F00000000000000000000000000000001B
:1035C00000000000000000000000000000000000FB
:1035D00000000000000000000000000000000000EB
:1035E000000000000000000000000000FC030000DC
:1035F00002010000020100008001000080000000C4
:10360000C00000004000000060000000200000003A
:10361000300000003000000018000000080000002A
:10362000000000000000000000000000000000009A
:10363000000000000000000000000000000000008A
:10364000000000000000000000000000000000007A
:1036500000000000F8000000CC010000860100001E
:10366000860100008E010000DC000000F000000078
:10367000C80100008C0300000603000006030000E0
:10368000060300008C01000078000000000000002C
:10369000000000000000000000000000000000002A
:1036A000000000000000000000000000000000001A
:1036B000000000000000000000000000000000000A
:1036C000F00000008C0100008401000006030000EF
:1036D0000603000006030000060300008C03000040
:1036E000780300000001000080010000C00000001D
:1036F000200000001C00000000000000000000008E
:1037000000000000000000000000000000000000B9
:1037100000000000000000000000000000000000A9
:1037200000000000000C00000C0C00000000000075
:1037300000000000000C00000C0C00000000000065
:103740000000000000000000000000000000000079
:103750000000000000000000000000000C0C000051
:103760000C00000000000000000000000E0F000030
:103770000C0C00000402000000000000000000002B
:103780000000000000000000000000000000000039
:103790000000000000000000000000000000000029
:1037A000000000000000000000010000E001000037
:1037B0003C000000060000001C000000F0000000BB
:1037C0008001000000000000000000000000000078
:1037D00000000000000000000000000000000000E9
:1037E00000000000000000000000000000000000D9
:1037F00000000000000000000000000000000000C9
:1038000000000000000000000000000000000000B8
:10381000000000000000000000000000FE010000A9
:103820000000000000000000FE0100000000000099
:103830000000000000000000000000000000000088
:103840000000000000000000000000000000000078
:103850000000000000000000000000000000000068
:103860000000000000000000000000000000000058
:103870000000000000000000000000000000000048
:10388000060000003C000000E00100008001000094
:10389000F00000001E000000020000000000000018
:1038A0000000000000000000000000000000000018
:1038B0000000000000000000000000000000000008
:1038C00000000000000000000000000000000000F8
:1038D000F8000000CC010000860100008601000015
:1038E0008001000080010000C000000060000000B6
:1038F00060000000300000003000000030000000D8
:103900001000000000000000300000003000000047
:103910003000000000000000000000000000000077
:103920000000000000000000000000000000000097
:103930000000000000000000000000000000000087
:103940000000000000000000000000000000000077
:103950003F000000C070000000300000C000000008
:103960001880000001080000800100000C97000092
:1039700003840000180300004618000003660000DE
:10398000180300006618000003660000180300001A
:1039900066180000016E000098010000CC9C000039
:1039A000008C0000730000001800000000380000C8
:1039B00080000000E0E00000018000001F00000027
:1039C00000000000000000000000000000000000F7
:1039D00000000000000000000000000000000000E7
:1039E00000000000000000000040000000C00000D7
:1039F00000A0000000A0000001A0000001100000D5
:103A0000011000000310000003F80000030800008C
:103A100006080000060400000C0400000C1F000053
:103A20001E00000000000000000000000000000078
:103A30000000000000000000000000000000000086
:103A40000000000000000000000000000000000076
:103A50000000000000FE0000008D0000030C0000CC
:103A6000030C0000030C0000038C000001FC0000AC
:103A7000018C0000030C0000070C0000060C000085
:103A8000060C0000060C000003FF0000010000000F
:103A90000000000000000000000000000000000026
:103AA0000000000000000000000000000000000016
:103AB0000000000000000000000000000000000006
:103AC00000C00000073000000C080000000C0000DF
:103AD00000040000000600000006000000060000D0
:103AE0000006000000060000000C0000000C0000B2
:103AF0000838000004E0000003000000000000009F
:103B000000000000000000000000000000000000B5
:103B100000000000000000000000000000000000A5
:103B200000000000000000000000000000FE000097
:103B3000010D0000070C00000E0C00000C0C000032
:103B4000180C0000180C0000180C0000180C0000E5
:103B5000180C0000180C00000C0C00000E0C0000EB
:103B600007FF00000100000000000000000000004E
:103B70000000000000000000000000000000000045
:103B80000000000000000000000000000000000035
:103B9000000000000000000000FF0000030C000017
:103BA000020C0000020C0000000C0000000C0000E1
:103BB00000FC0000018C0000000C0000000C000064
:103BC000000C0000000C0000040C000006FF0000C8
:103BD00003000000000000000000000000000000E2
:103BE00000000000000000000000000000000000D5
:103BF00000000000000000000000000000000000C5
:103C00000000000000FF0000030C0000020C000098
:103C1000020C0000000C0000000C000000FC000082
:103C2000018C0000000C0000000C0000000C0000E3
:103C3000000C0000000C0000003F0000000000002D
:103C40000000000000000000000000000000000074
:103C50000000000000000000000000000000000064
:103C60000000000000000000000000000000000054
:103C700000E000000310000006080000000C000037
:103C8000000600000006000000060000008600009C
:103C90000F06000006060000060C0000060C0000DF
:103CA0000618000006F000000100000000000000FF
:103CB0000000000000000000000000000000000004
:103CC00000000000000000000000000000000000F4
:103CD000000000000000000000000000003F0000A5
:103CE0007E0C0000180C0000180C0000180C0000DE
:103CF000180C000018FC00001F0C0000180C00003D
:103D0000180C0000180C0000180C0000180C000023
:103D1000183F00007E0000000000000000000000CE
:103D20000000000000000000000000000000000093
:103D3000000000000000000000000000003F000044
:103D40000C0C00000C0C00000C0C00000C0C000013
:103D50000C0C00000C0C00003F00000000000000F4
:103D60000000000000000000000000000000000053
:103D7000000000007E18000018180000181800004D
:103D80001818000018180000181800001818000073
:103D900018080000040300000000000000000000FC
:103DA0000000000000000000000000000000000013
:103DB00000000000003F00000F0C0000020C00009B
:103DC000018C0000004C0000006C0000003C000072
:103DD000006C000000EC000000CC0000008C000033
:103DE000010C0000030C0000063F00001C00000056
:103DF00000000000000000000000000000000000C3
:103E000000000000000000000000000000000000B2
:103E100000000000000000000000000000000000A2
:103E2000003F0000000C0000000C0000000C00002F
:103E3000000C0000000C0000000C0000000C000052
:103E4000000C0000000C0000000C0000000C000042
:103E5000040C000002FF000003000000000000004E
:103E60000000000000000000000000000000000052
:103E70000000000000000000000000000000000042
:103E80000000000000000000000000000000000032
:103E90000000000000000000001E0000C001000043
:103EA0001CE00000001C0000E00000003CF00000EE
:103EB000002C0000D00000006CD00000006C00005E
:103EC000C8000000CCC8000000CC0000CC000000FE
:103ED0008CC50000008C0000C70000000CC300006F
:103EE000000C0000C30000001EE100000300000001
:103EF00000000000000000000000000000000000C2
:103F000000000000000000000000000000000000B1
:103F100000000000000000000000000000000000A1
:103F20000000000000000000000000000000000091
:103F30000F7E00000C1800001C1800003C18000048
:103F40002C1800004C180000CC1800008C19000040
:103F50000C1900000C1B00000C1E00000C1C0000C3
:103F60000C1C00003F1800000000000000000000D2
:103F70000000000000000000000000000000000041
:103F80000000000000000000000000000000000031
:103F9000000000000000000000000000E00300003E
:103FA00018060000080C00000C0C000006180000A9
:103FB0000618000006180000061800000618000089
:103FC000061800000C0C00000C0400001802000091
:103FD000F0010000000000000000000000000000F0
:103FE00000000000000000000000000000000000D1
:103FF00000000000000000000000000000000000C1
:104000000000000000000000FE0100000D030000A1
:104010000C0600000C0600000C0600000C06000058
:104020000C030000FC0000000C0000000C0000006D
:104030000C0000000C0000000C0000003F0000001D
:104040000000000000000000000000000000000070
:104050000000000000000000000000000000000060
:104060000000000000000000000000000000000050
:1040700000000000E003000018060000080C00002B
:104080000C0C0000061800000618000006180000BE
:104090000618000006180000061800000C0C0000AE
:1040A0000C0C000018060000F001000000030000E6
:1040B00000060000003800000000000000000000C2
:1040C00000000000000000000000000000000000F0
:1040D00000000000000000000000000000000000E0
:1040E000FE0100000D0300000C0600000C0600009D
:1040F0000C0600000C030000FC000000CC000000D7
:10410000CC0000008C0100000C0300000C03000038
:104110000C0600003F1C0000000000000000000032
:10412000000000000000000000000000000000008F
:10413000000000000000000000000000000000007F
:10414000000000000000000000000000F800000077
:104150008C01000006000000060000000E000000B8
:104160003C000000F8000000E001000080030000B7
:1041700000030000020300000201000086010000AD
:104180007C000000000000000000000000000000B3
:10419000000000000000000000000000000000001F
:1041A000000000000000000000000000000000000F
:1041B0000000000000000000FF0F00006108000088
:1041C0006108000060000000600000006000000066
:1041D000600000006000000060000000600000005F
:1041E000600000006000000060000000F8010000B6
:1041F00000000000000000000000000000000000BF
:1042000000000000000000000000000000000000AE
:10421000000000000000000000000000000000009E
:10422000000000003F7E00000C1800000C18000089
:104230000C1800000C1800000C1800000C180000EE
:104240000C1800000C1800000C1800000C180000DE
:10425000180C000038060000E00300000000000019
:10426000000000000000000000000000000000004E
:10427000000000000000000000000000000000003E
:10428000000000000000000000000000000000002E
:104290001F3C00000C1800000C080000180800006B
:1042A000180C000018040000300600003002000066
:1042B000200200006003000060010000C001000057
:1042C000C0010000800000000000000000000000AD
:1042D00000000000000000000000000000000000DE
:1042E00000000000000000000000000000000000CE
:1042F00000000000000000000000000000000000BE
:1043000000000000000000001FC20000070C0000B9
:10431000060100000C060000010C0000070100006F
:104320000C8D0000010800008D000000988900003D
:1043300000980000980000009898000000D000004D
:10434000D0000000707000000070000070000000DD
:10435000706000000020000060000000000000000D
:10436000000000000000000000000000000000004D
:10437000000000000000000000000000000000003D
:10438000000000000000000000000000000000002D
:10439000000000000000000000000000003F0000DE
:1043A0001F0C00000C18000006380000033000004D
:1043B00001E0000001C0000000C0000001A00000FA
:1043C0000130000003180000060800000E0C000079
:1043D0000C1F00003E000000000000000000000074
:1043E00000000000000000000000000000000000CD
:1043F00000000000000000000000000000000000BD
:104400000000000000000000000700003E0C00005B
:104410000C180000041800000230000003600000C7
:1044200001E0000001C0000000C0000000C000006A
:1044300000C0000000C0000000C0000000F000004C
:104440000300000000000000000000000000000069
:10445000000000000000000000000000000000005C
:10446000000000000000000000000000000000004C
:104470000000000000FC0000070400000302000030
:104480000380000001C0000000C0000000600000C8
:10449000007000000030000000180000001800004C
:1044A000000C00000406000004FE000007000000ED
:1044B00000000000000000000000000000000000FC
:1044C000000000000000000000000000003E0000AE
:1044D00006060000060600000606000006060000AC
:1044E000060600000606000006060000060600009C
:1044F00006060000060600003E0000000000000066
:1045000000000000000000000200000006000000A3
:1045100006000000040000000C000000080000007D
:10452000180000001800000010000000300000001B
:10453000300000002000000060000000400000008B
:1045400040000000C000000080000000800100006A
:1045500080010000000100000003000000020000D4
:10456000000000000000000000000000000000004B
:104570003E300000303000003030000030300000AD
:1045800030300000303000003030000030300000AB
:104590003030000030300000303E000000000000ED
:1045A00000000000000000000000000000200000EB
:1045B000006000000070000000D0000000D8000083
:1045C0000088000000880000018C00000104000049
:1045D00003040000030200000300000000000000CC
:1045E00000000000000000000000000000000000CB
:1045F00000000000000000000000000000000000BB
:1046000000000000000000000000000000000000AA
:10461000000000000000000000000000000000009A
:10462000000000000000000000000000000000008A
:10463000000000000000000000000000000000007A
:10464000000000000000000000000000000000006A
:10465000000000000000000000000000000000005A
:104660000000000000FE0000030000000000000049
:10467000000000000000000000000000000000003A
:10468000030600000C0800001000000000000000FD
:10469000000000000000000000000000000000001A
:1046A000000000000000000000000000000000000A
:1046B00000000000000000000000000000000000FA
:1046C00000000000000000000000000000000000EA
:1046D0000000000000000000F00000008C0100005D
:1046E0008601000080010000F00100008C01000044
:1046F0008601000086010000C6010000BC07000022
:1047000000000000000000000000000000000000A9
:104710000000000000000000000000000000000099
:1047200000000000000000000C0000000E0000006F
:104730000C0000000C0000000C0000000C00000049
:104740000C000000CC0100003C0300001C0700002E
:104750000C0600000C0600000C0600000C06000011
:104760000C0200001C010000F0000000000000002E
:104770000000000000000000000000000000000039
:104780000000000000000000000000000000000029
:104790000000000000000000000000000000000019
:1047A0000000000000000000000000000000000009
:1047B000E0010000180300000C00000006000000EB
:1047C0000600000006000000060000000C000000CB
:1047D0001C030000F00000000000000000000000CA
:1047E00000000000000000000000000000000000C9
:1047F00000000000000000000000000000000000B9
:1048000000030000C00300000003000000030000DC
:10481000000300000003000000030000F00300009C
:1048200088030000040300000603000006030000E4
:1048300006030000060300000E030000CC0B00007E
:104840003807000000000000000000000000000029
:104850000000000000000000000000000000000058
:104860000000000000000000000000000000000048
:104870000000000000000000000000000000000038
:104880000000000000000000F0000000080300002D
:1048900004030000FE030000060000000600000004
:1048A000060000000C0000001C030000F0000000E7
:1048B00000000000000000000000000000000000F8
:1048C00000000000000000000000000000000000E8
:1048D00000600000501800000C0C00000C0C0000E0
:1048E0007E0D00000C0C00000C0C00000C0C0000F5
:1048F0000C3F00000000000000000000000000006D
:1049000000000000000000000000000000000000A7
:104910000000000000000000000000000000000097
:10492000000000000000000000F800000C8C0000F7
:10493000030600000306000003060000038C0000CD
:1049400001F8000000180000001C000000F8000042
:10495000030600000E0300000C0300000C0600001C
:1049600006FC000001000000000000000000000044
:104970000000000000000000000C0000000F00001C
:10498000000C0000000C0000000C0000000C0000F7
:10499000000C000000CC0000032C0000061C0000EE
:1049A000060C0000060C0000060C0000060C0000BF
:1049B000060C0000060C000006BF00001F000000EF
:1049C00000000000000000000000000000000000E7
:1049D00000000000000000000000000000000000D7
:1049E000000000000C0C000000000000000C0000A3
:1049F0000F0C00000C0C00000C0C00000C0C000054
:104A00003F00000000000000000000000000000067
:104A10000000000000000000000C00000C0000007E
:104A2000000000000C0F00000C0C00000C0C00003B
:104A30000C0C00000C0C00000C0C00000402000028
:104A40000100000000000000000000000000000065
:104A5000000C0000000F0000000C0000000C000023
:104A6000000C0000000C0000000C0000008C000096
:104A7000078C000001CC0000002C0000003C00006E
:104A8000006C000000CC0000008C0000010C000055
:104A9000031F00000F0000000000000000000000E5
:104AA0000000000000000000000000000000000006
:104AB00000000000000000000C0F00000C0C0000C3
:104AC0000C0C00000C0C00000C0C00000C0C000086
:104AD0000C0C00000C0C00003F0000000000000067
:104AE00000000000000000000000000000000000C6
:104AF00000000000000000000000000000000000B6
:104B000000000000000000000000000000000000A5
:104B10000000000000000000000000000000000095
:104B2000000000008EE30000016D0000160300008D
:104B30001C0E0000030C0000060300000C06000021
:104B4000030C0000060300000C060000030C00002C
:104B5000060300000C06000003BF0000DF0F00008A
:104B60000000000000000000000000000000000045
:104B70000000000000000000000000000000000035
:104B80000000000000000000000000000000000025
:104B90000000000000000000000000000000000015
:104BA0000000000000000000000000000000000005
:104BB000008E0000036D0000061C0000060C0000C3
:104BC000060C0000060C0000060C0000060C00009D
:104BD000060C000006BF00001F00000000000000DF
:104BE00000000000000000000000000000000000C5
:104BF00000000000000000000000000000000000B5
:104C000000000000000000000000000000000000A4
:104C100000000000000000000000000000F00000A4
:104C200000880000030400000306000006060000E0
:104C30000606000006060000060C0000021C00002C
:104C400001F0000000000000000000000000000073
:104C50000000000000000000000000000000000054
:104C60000000000000000000000000000000000044
:104C70000000000000000000000000000000000034
:104C8000000000000000000000CE0000013D000018
:104C9000031C0000070C0000060C0000060C0000BE
:104CA000060C0000060C0000021C000003EC0000D3
:104CB000000C0000000C0000000C0000000C0000C4
:104CC000003F0000000000000000000000000000A5
:104CD00000000000000000000000000000000000D4
:104CE00000000000000000000000000000000000C4
:104CF0000000000000F0000002880000030C00002B
:104D0000030600000306000003060000030600007F
:104D1000030E0000038C0000037800000300000075
:104D200003000000030000000300000003C00000B7
:104D30000F00000000000000000000000000000064
:104D40000000000000000000000000000000000063
:104D50000000000000000000000000000000000053
:104D600000CC000001AF0000019C0000001C00000E
:104D7000000C0000000C0000000C0000000C000003
:104D8000000C0000003F00000000000000000000D8
:104D90000000000000000000000000000000000013
:104DA0000000000000000000000000000000000003
:104DB00000000000000000000000000000000000F3
:104DC000000000000000000000000000007C000067
:104DD0000066000000060000000E0000003C00001D
:104DE00000F0000000C0000000C2000000C200008F
:104DF000003E000000000000000000000000000075
:104E000000000000000000000000000000000000A2
:104E1000000000000000000000000000000800008A
:104E20000C0C00000CFE00000D0C00000C0C00002F
:104E30000C0C00000C8C000078000000000000004A
:104E40000000000000000000000000000000000062
:104E50000000000000000000000000000000000052
:104E60000000000000000000000000000000000042
:104E70000C030000CE0300000C0300000C03000034
:104E80000C0300000C0300000C0300000C030000E6
:104E9000CC0B0000380700000000000000000000FC
:104EA0000000000000000000000000000000000002
:104EB00000000000000000000000000000000000F2
:104EC00000000000000000000000000000000000E2
:104ED0000000000000000000000000009F0700002C
:104EE000040200000C0100000C0100009801000009
:104EF00098000000900000007000000060000000BA
:104F00002000000000000000000000000000000081
:104F10000000000000000000000000000000000091
:104F20000000000000000000000000000000000081
:104F30000000000000000000000000000000000071
:104F400000000000000000001FF10000044100000C
:104F5000842300008C2300008826000048360000CF
:104F600058140000301C0000301C00003008000005
:104F70000000000000000000000000000000000031
:104F80000000000000000000000000000000000021
:104F90000000000000000000000000000000000011
:104FA0000000000000000000000000000000000001
:104FB000000000009F0700000C01000098000000A6
:104FC000F00000006000000070000000D000000051
:104FD00088010000040300008F07000000000000AB
:104FE00000000000000000000000000000000000C1
:104FF00000000000000000000000000000000000B1
:1050000000000000000000000000000000000000A0
:105010000000000000000000000000000000000090
:105020009F070000040200000C0100000C010000BA
:10503000980100009800000090000000700000003F
:105040006000000060000000200000003000000050
:10505000100000000F00000007000000000000002A
:105060000000000000000000000000000000000040
:105070000000000000000000000000000000000030
:10508000000000000000000000000000FE01000021
:1050900082010000C200000060000000200000004B
:1050A00030000000180000000C01000004010000A6
:1050B000FE010000000000000000000000000000F1
:1050C00000000000000000000000000000000000E0
:1050D0000000000040300000101800001818000008
:1050E0003830000030100000081E00003030000092
:1050F0003030000018180000181800003040000080
:1051000000000000000000000C0C00000C0C00006F
:105110000C0C00000C0C00000C0C00000C0C00002F
:105120000C0C00000C0C00000C0C00000C0C00001F
:105130000C0C00000C0C000000000000000000003F
:10514000020C000018180000181800000C0C0000D9
:105150000C0C000078100000080C00000C1C000073
:1051600018180000180800000C02000000000000E1
:10517000000000000000000000000000000000002F
:10518000000000000000000000000000000000001F
:1051900000000000000000000000000000180000F7
:1051A000047C000002F2000001C2000001000000C7
:1051B00000000000000000000000000000000000EF
:1051C00000000000000000000000000000000000DF
:1051D00000000000000000000000000000000000CF
:1051E00000000000449400000001000000010000E5
:1051F0000001000000010000FF000000FF000000AF
:10520000FF000000FE000000FE000000FD000000A6
:10521000FC000000FB000000FA000000F9000000A4
:10522000F8000000F7000000F6000000F5000000A4
:10523000F3000000F2000000F1000000EF000000A9
:10524000ED000000EC000000EA000000E8000000B3
:10525000E6000000E4000000E2000000E0000000C2
:10526000DE000000DB000000D9000000D7000000D5
:10527000D4000000D2000000CF000000CC000000ED
:10528000CA000000C7000000C4000000C100000008
:10529000BE000000BB000000B8000000B500000028
:1052A000B2000000AF000000AB000000A80000004A
:1052B000A5000000A10000009E0000009A00000070
:1052C00096000000930000008F0000008B0000009B
:1052D0008800000084000000800000007C000000C6
:1052E0007800000074000000700000006C000000F6
:1052F0006800000064000000600000005C00000026
:1053000058000000530000004F0000004B00000058
:1053100047000000420000003E0000003A0000008C
:1053200035000000310000002C00000028000000C3
:10533000240000001F0000001B00000016000000F9
:10534000120000000D000000090000000400000031
:1053500000000000707200006F6D000070740000AB
:105360002061000070700000656100007273000031
:105370002E000000756E0000746900006C200000B3
:105380007468000065200000636100006C69000023
:105390006272000061740000696F00006E0000001E
:1053A0007072000065730000736900006E67000092
:1053B000206F00006E20000074680000652000006F
:1053C0007363000072650000656500006E000000F8
:1053D00072650000736500007420000074680000AE
:1053E00065200000626F0000617200006420000010
:1053F00077680000696C000065000000546F0000D1
:10540000205200004550000045410000542000009B
:10541000636100006C69000062720000617400004A
:10542000696F00006E2C0000006300006F6E0000CA
:10543000746900006E750000652E000000540000C5
:105440006F75000063680000207300006372000045
:10545000656500006E200000746F0000007300009E
:1054600063720000656500006E200000636100004B
:105470006C6900006272000061740000696F0000D6
:105480006E2E00000050000065720000666F000084
:10549000726D0000696E000067200000746F0000EC
:1054A0007563000068000000000000004A2C000046
:1054B0000000000000000000503A00000000000062
:1054C000000000005648000000000000000000003E
:1054D0005C56000000000000000000006264000054
:1054E00000000000000000006872000000000000E2
:1054F000000000006E8000000000000000000000BE
:10550000748E000000000000000000007A9C000083
:10551000000000000000000080AA00000000000061
:105520000000000086B8000000000000000000003D
:105530008CC60000000000000000000092D40000B3
:10554000000000000000000098E2000000000000E1
:10555000000000009EF000000000000000000000BD
:10556000A4FE00000000000000000000AA0C0000E3
:105570000100000000000000B01A0000010000005F
:1055800000000000B628000001000000000000003C
:10559000BC3600000100000000000000C244000012
:1055A00001000000000000002A4E00000100000081
:1055B0000000000010540000010000000000000086
:1055C000785D000001000000009500000000000070
:1055D0000000000001F900000000000000000000D1
:1055E00008870000040000000000000009AF000070
:1055F00000000000010000000A1B00000000000085
:10560000010000000CC300000100000000000000C9
:105610000DAF0000020000000000000010FF0000BD
:10562000000000000000000011FF0000000000006A
:105630000100000012FF0000000000000100000057
:1056400018FF0000000000000100000019FF00002A
:10565000000000000100000020FF0000000000002A
:105660000000000021FF000000000000000000001A
:1056700026DF00000100000000000000377300007A
:1056800000000000000000003A25000004000000B7
:10569000000000003B2500000000000000000000AA
:1056A00029FF0000040000000000000017FF0000B8
:1056B000000000000000000025730000202500000D
:1056C00064250000642000002573000020320000E3
:1056D0003025000064250000640000002530000033
:1056E000326400003A2500003032000064000000FF
:1056F000537500006E0000004D6F00006E0000004A
:10570000547500006500000057650000640000004B
:105710005468000075000000467200006900000037
:1057200053610000740000004A6100006E00000038
:1057300046650000620000004D610000720000003C
:1057400041700000720000004D610000790000000F
:105750004A7500006E0000004A7500006C000000F1
:1057600041750000670000005365000070000000F4
:105770004F630000740000004E6F000076000000D0
:105780004465000063000000416C0000617200008D
:105790006D200000466900006C6500002046000096
:1057A0006F7500006E64000021000000416C000075
:1057B000617200006D200000466900006C65000009
:1057C000204E00006F740000204100007661000050
:1057D000696C0000616200006C65000000720000EE
:1057E000006100006C610000726D00002E6D000011
:1057F00070330000004D00004C41000020410000CB
:105800006C610000726D0000204300006C6F0000AE
:10581000636B0000004A0000756C0000203100003E
:10582000332000003230000031340000000000005E
:1058300014F100005265000074720000790000004D
:1058400050720000657300007320000026200000E5
:10585000526500006C650000617300006500000087
:1058600063690000726300006C650000006F000057
:105870006E2000007468000065200000666900006A
:105880006C6C000065640000000000002E2E00001B
:105890000000000000080000300000004000000090
:1058A00000000000000000000000000000000000F8
:1058B000200000002000000020000000410800003F
:1058C0004108000041080000610800006108000074
:1058D00061080000821000008210000082100000A9
:1058E00082100000A2100000A2100000A210000010
:1058F000C3180000C3180000C3180000E31800001C
:10590000E3180000E3180000042100000421000057
:1059100004210000042100002421000024210000B3
:1059200024210000452900004529000045290000E8
:10593000452900006529000065290000652900004F
:10594000863100008631000086310000A63100005B
:10595000A6310000A6310000A6310000C7390000C2
:10596000C7390000C7390000C7390000E739000017
:10597000E7390000E7390000E7390000084200007D
:1059800008420000084200000842000028420000CF
:10599000284200002842000028420000494A000036
:1059A000494A0000494A0000494A0000694A00008B
:1059B000694A0000694A00008A5200008A520000C9
:1059C0008A5200008A520000AA520000AA52000027
:1059D000AA520000AA520000CB5A0000CB5A000085
:1059E000CB5A0000CB5A0000EB5A0000EB5A0000E3
:1059F000EB5A0000EB5A00000C6300000C6300003F
:105A00000C6300002C6300002C6300002C6300007A
:105A10002C6300004D6B00004D6B00004D6B0000CF
:105A20004D6B00006D6B00006D6B00006D6B000036
:105A30006D6B00008E7300008E7300008E7300008B
:105A40008E730000AE730000AE730000AE730000F2
:105A5000CF7B0000CF7B0000EF7B0000EF7B0000DE
:105A6000EF7B0000EF7B000010840000108400003A
:105A70001084000010840000308400003084000096
:105A80003084000030840000518C0000518C0000F4
:105A9000718C0000718C0000718C000092940000E9
:105AA00092940000B2940000B2940000B2940000FE
:105AB000B2940000D39C0000D39C0000D39C000053
:105AC000D39C0000F39C0000F39C000014A5000090
:105AD00014A5000014A5000034A5000055AD000079
:105AE00096B5000096B50000B6B50000B6B500004A
