:020000040000FA
:10000000   0102030004050600070809000A0B0C 00A2
:10001000   0D0E0F001011120013141500161718 0002
:10002000   191A1B001C1D1E001F202100222324 0062
:10003000   2526270028292A002B2C2D002E2F30 00C2
:10004000   3132330034353600373839003A3B3C 0022
:10005000   3D3E3F00BF40410042434400454647 000B
:10006000   48494A004B4C4D004E4F5000515253 00EE
:10007000   54555600575859005A5B5C005D5E5F 004E
:10008000   606162006364650066676800696A6B 00AE
:10009000   6C6D6E006F70710072737400757677 000E
:1000A000   78797A007B7C7D007E7F8000818283 006E
:1000B000   84858600878889008A8B8C008D8E8F 00CE
:1000C000   909192009394950096979800999A9B 002E
:1000D000   9C9D9E009FA0A100A2A3A400A5A6A7 008E
:1000E000   A8A9AA00ABACAD00AEAFB000B1B2B3 00EE
:1000F000   B4B5B600B7B8B900BABBBC00BDBEBF 004E

:10010000   0102030004050600070809000A0B0C00A1
:10011000   0D0E0F0010111200131415001617180001
:10012000   191A1B001C1D1E001F2021002223240061
:10013000   2526270028292A002B2C2D002E2F3000C1
:10014000   3132330034353600373839003A3B3C0021
:10015000   3D3E3F00BF40410042434400454647000A
:10016000   48494A004B4C4D004E4F500051525300ED
:10017000   54555600575859005A5B5C005D5E5F004D
:10018000   606162006364650066676800696A6B00AD
:10019000   6C6D6E006F70710072737400757677000D
:1001A000   78797A007B7C7D007E7F8000818283006D
:1001B000   84858600878889008A8B8C008D8E8F00CD
:1001C000   909192009394950096979800999A9B002D
:1001D000   9C9D9E009FA0A100A2A3A400A5A6A7008D
:1001E000   A8A9AA00ABACAD00AEAFB000B1B2B300ED
:1001F000   B4B5B600B7B8B900BABBBC00BDBEBF004D

:10020000   0102030004050600070809000A0B0C00A0
:10021000   0D0E0F0010111200131415001617180000
:10022000   191A1B001C1D1E001F2021002223240060
:100230002526270028292A002B2C2D002E2F3000C0
:100240003132330034353600373839003A3B3C0020
:100250003D3E3F00BF404100424344004546470009
:1002600048494A004B4C4D004E4F500051525300EC
:1002700054555600575859005A5B5C005D5E5F004C
:10028000606162006364650066676800696A6B00AC
:100290006C6D6E006F70710072737400757677000C
:1002A00078797A007B7C7D007E7F8000818283006C
:1002B00084858600878889008A8B8C008D8E8F00CC
:1002C000909192009394950096979800999A9B002C
:1002D0009C9D9E009FA0A100A2A3A400A5A6A7008C
:1002E000A8A9AA00ABACAD00AEAFB000B1B2B300EC
:1002F000B4B5B600B7B8B900BABBBC00BDBEBF004C

:100300000102030004050600070809000A0B0C009F
:100310000D0E0F00101112001314150016171800FF
:10032000191A1B001C1D1E001F202100222324005F
:100330002526270028292A002B2C2D002E2F3000BF
:100340003132330034353600373839003A3B3C001F
:100350003D3E3F00BF404100424344004546470008
:1003600048494A004B4C4D004E4F500051525300EB
:1003700054555600575859005A5B5C005D5E5F004B
:10038000606162006364650066676800696A6B00AB
:100390006C6D6E006F70710072737400757677000B
:1003A00078797A007B7C7D007E7F8000818283006B
:1003B00084858600878889008A8B8C008D8E8F00CB
:1003C000909192009394950096979800999A9B002B
:1003D0009C9D9E009FA0A100A2A3A400A5A6A7008B
:1003E000A8A9AA00ABACAD00AEAFB000B1B2B300EB
:1003F000B4B5B600B7B8B900BABBBC00BDBEBF004B

:100400000102030004050600070809000A0B0C009E
:100410000D0E0F00101112001314150016171800FE
:10042000191A1B001C1D1E001F202100222324005E
:100430002526270028292A002B2C2D002E2F3000BE
:100440003132330034353600373839003A3B3C001E
:100450003D3E3F00BF404100424344004546470007
:1004600048494A004B4C4D004E4F500051525300EA
:1004700054555600575859005A5B5C005D5E5F004A
:10048000606162006364650066676800696A6B00AA
:100490006C6D6E006F70710072737400757677000A
:1004A00078797A007B7C7D007E7F8000818283006A
:1004B00084858600878889008A8B8C008D8E8F00CA
:1004C000909192009394950096979800999A9B002A
:1004D0009C9D9E009FA0A100A2A3A400A5A6A7008A
:1004E000A8A9AA00ABACAD00AEAFB000B1B2B300EA
:1004F000B4B5B600B7B8B900BABBBC00BDBEBF004A
:100500000102030004050600070809000A0B0C009D
:100510000D0E0F00101112001314150016171800FD
:10052000191A1B001C1D1E001F202100222324005D
:100530002526270028292A002B2C2D002E2F3000BD
:100540003132330034353600373839003A3B3C001D
:100550003D3E3F00BF404100424344004546470006
:1005600048494A004B4C4D004E4F500051525300E9
:1005700054555600575859005A5B5C005D5E5F0049
:10058000606162006364650066676800696A6B00A9
:100590006C6D6E006F707100727374007576770009
:1005A00078797A007B7C7D007E7F80008182830069
:1005B00084858600878889008A8B8C008D8E8F00C9
:1005C000909192009394950096979800999A9B0029
:1005D0009C9D9E009FA0A100A2A3A400A5A6A70089
:1005E000A8A9AA00ABACAD00AEAFB000B1B2B300E9
:1005F000B4B5B600B7B8B900BABBBC00BDBEBF0049
:100600000102030004050600070809000A0B0C009C
:100610000D0E0F00101112001314150016171800FC
:10062000191A1B001C1D1E001F202100222324005C
:100630002526270028292A002B2C2D002E2F3000BC
:100640003132330034353600373839003A3B3C001C
:100650003D3E3F00BF404100424344004546470005
:1006600048494A004B4C4D004E4F500051525300E8
:1006700054555600575859005A5B5C005D5E5F0048
:10068000606162006364650066676800696A6B00A8
:100690006C6D6E006F707100727374007576770008
:1006A00078797A007B7C7D007E7F80008182830068
:1006B00084858600878889008A8B8C008D8E8F00C8
:1006C000909192009394950096979800999A9B0028
:1006D0009C9D9E009FA0A100A2A3A400A5A6A70088
:1006E000A8A9AA00ABACAD00AEAFB000B1B2B300E8
:1006F000B4B5B600B7B8B900BABBBC00BDBEBF0048
:100700000102030004050600070809000A0B0C009B
:100710000D0E0F00101112001314150016171800FB
:10072000191A1B001C1D1E001F202100222324005B
:100730002526270028292A002B2C2D002E2F3000BB
:100740003132330034353600373839003A3B3C001B
:100750003D3E3F00BF404100424344004546470004
:1007600048494A004B4C4D004E4F500051525300E7
:1007700054555600575859005A5B5C005D5E5F0047
:10078000606162006364650066676800696A6B00A7
:100790006C6D6E006F707100727374007576770007
:1007A00078797A007B7C7D007E7F80008182830067
:1007B00084858600878889008A8B8C008D8E8F00C7
:1007C000909192009394950096979800999A9B0027
:1007D0009C9D9E009FA0A100A2A3A400A5A6A70087
:1007E000A8A9AA00ABACAD00AEAFB000B1B2B300E7
:1007F000B4B5B600B7B8B900BABBBC00BDBEBF0047
:100800000102030004050600070809000A0B0C009A
:100810000D0E0F00101112001314150016171800FA
:10082000191A1B001C1D1E001F202100222324005A
:100830002526270028292A002B2C2D002E2F3000BA
:100840003132330034353600373839003A3B3C001A
:100850003D3E3F00004041004243440045464700C2
:1008600048494A004B4C4D004E4F500051525300E6
:1008700054555600575859005A5B5C005D5E5F0046
:10088000606162006364650066676800696A6B00A6
:100890006C6D6E006F707100727374007576770006
:1008A00078797A007B7C7D007E7F80008182830066
:1008B00084858600878889008A8B8C008D8E8F00C6
:1008C000909192009394950096979800999A9B0026
:1008D0009C9D9E009FA0A100A2A3A400A5A6A70086
:1008E000A8A9AA00ABACAD00AEAFB000B1B2B300E6
:1008F000B4B5B600B7B8B900BABBBC00BDBEBF0046
:100900000102030004050600070809000A0B0C0099
:100910000D0E0F00101112001314150016171800F9
:10092000191A1B001C1D1E001F2021002223240059
:100930002526270028292A002B2C2D002E2F3000B9
:100940003132330034353600373839003A3B3C0019
:100950003D3E3F00BF404100424344004546470002
:1009600048494A004B4C4D004E4F500051525300E5
:1009700054555600575859005A5B5C005D5E5F0045
:10098000606162006364650066676800696A6B00A5
:100990006C6D6E006F707100727374007576770005
:1009A00078797A007B7C7D007E7F80008182830065
:1009B00084858600878889008A8B8C008D8E8F00C5
:1009C000909192009394950096979800999A9B0025
:1009D0009C9D9E009FA0A100A2A3A400A5A6A70085
:1009E000A8A9AA00ABACAD00AEAFB000B1B2B300E5
:1009F000B4B5B600B7B8B900BABBBC00BDBEBF0045
:100A00000102030004050600070809000A0B0C0098
:100A10000D0E0F00101112001314150016171800F8
:100A2000191A1B001C1D1E001F2021002223240058
:100A30002526270028292A002B2C2D002E2F3000B8
:100A40003132330034353600373839003A3B3C0018
:100A50003D3E3F00BF404100424344004546470001
:100A600048494A004B4C4D004E4F500051525300E4
:100A700054555600575859005A5B5C005D5E5F0044
:100A8000606162006364650066676800696A6B00A4
:100A90006C6D6E006F707100727374007576770004
:100AA00078797A007B7C7D007E7F80008182830064
:100AB00084858600878889008A8B8C008D8E8F00C4
:100AC000909192009394950096979800999A9B0024
:100AD0009C9D9E009FA0A100A2A3A400A5A6A70084
:100AE000A8A9AA00ABACAD00AEAFB000B1B2B300E4
:100AF000B4B5B600B7B8B900BABBBC00BDBEBF0044
:100B00000102030004050600070809000A0B0C0097
:100B10000D0E0F00101112001314150016171800F7
:100B2000191A1B001C1D1E001F2021002223240057
:100B30002526270028292A002B2C2D002E2F3000B7
:100B40003132330034353600373839003A3B3C0017
:100B50003D3E3F00BF404100424344004546470000
:100B600048494A004B4C4D004E4F500051525300E3
:100B700054555600575859005A5B5C005D5E5F0043
:100B8000606162006364650066676800696A6B00A3
:100B90006C6D6E006F707100727374007576770003
:100BA00078797A007B7C7D007E7F80008182830063
:100BB00084858600878889008A8B8C008D8E8F00C3
:100BC000909192009394950096979800999A9B0023
:100BD0009C9D9E009FA0A100A2A3A400A5A6A70083
:100BE000A8A9AA00ABACAD00AEAFB000B1B2B300E3
:100BF000B4B5B600B7B8B900BABBBC00BDBEBF0043
:100C00000102030004050600070809000A0B0C0096
:100C10000D0E0F00101112001314150016171800F6
:100C2000191A1B001C1D1E001F2021002223240056
:100C30002526270028292A002B2C2D002E2F3000B6
:100C40003132330034353600373839003A3B3C0016
:100C50003D3E3F00BF4041004243440045464700FF
:100C600048494A004B4C4D004E4F500051525300E2
:100C700054555600575859005A5B5C005D5E5F0042
:100C8000606162006364650066676800696A6B00A2
:100C90006C6D6E006F707100727374007576770002
:100CA00078797A007B7C7D007E7F80008182830062
:100CB00084858600878889008A8B8C008D8E8F00C2
:100CC000909192009394950096979800999A9B0022
:100CD0009C9D9E009FA0A100A2A3A400A5A6A70082
:100CE000A8A9AA00ABACAD00AEAFB000B1B2B300E2
:100CF000B4B5B600B7B8B900BABBBC00BDBEBF0042
:100D00000102030004050600070809000A0B0C0095
:100D10000D0E0F00101112001314150016171800F5
:100D2000191A1B001C1D1E001F2021002223240055
:100D30002526270028292A002B2C2D002E2F3000B5
:100D40003132330034353600373839003A3B3C0015
:100D50003D3E3F00BF4041004243440045464700FE
:100D600048494A004B4C4D004E4F500051525300E1
:100D700054555600575859005A5B5C005D5E5F0041
:100D8000606162006364650066676800696A6B00A1
:100D90006C6D6E006F707100727374007576770001
:100DA00078797A007B7C7D007E7F80008182830061
:100DB00084858600878889008A8B8C008D8E8F00C1
:100DC000909192009394950096979800999A9B0021
:100DD0009C9D9E009FA0A100A2A3A400A5A6A70081
:100DE000A8A9AA00ABACAD00AEAFB000B1B2B300E1
:100DF000B4B5B600B7B8B900BABBBC00BDBEBF0041
:100E00000102030004050600070809000A0B0C0094
:100E10000D0E0F00101112001314150016171800F4
:100E2000191A1B001C1D1E001F2021002223240054
:100E30002526270028292A002B2C2D002E2F3000B4
:100E40003132330034353600373839003A3B3C0014
:100E50003D3E3F00BF4041004243440045464700FD
:100E600048494A004B4C4D004E4F500051525300E0
:100E700054555600575859005A5B5C005D5E5F0040
:100E8000606162006364650066676800696A6B00A0
:100E90006C6D6E006F707100727374007576770000
:100EA00078797A007B7C7D007E7F80008182830060
:100EB00084858600878889008A8B8C008D8E8F00C0
:100EC000909192009394950096979800999A9B0020
:100ED0009C9D9E009FA0A100A2A3A400A5A6A70080
:100EE000A8A9AA00ABACAD00AEAFB000B1B2B300E0
:100EF000B4B5B600B7B8B900BABBBC00BDBEBF0040
:100F00000102030004050600070809000A0B0C0093
:100F10000D0E0F00101112001314150016171800F3
:100F2000191A1B001C1D1E001F2021002223240053
:100F30002526270028292A002B2C2D002E2F3000B3
:100F40003132330034353600373839003A3B3C0013
:100F50003D3E3F00BF4041004243440045464700FC
:100F600048494A004B4C4D004E4F500051525300DF
:100F700054555600575859005A5B5C005D5E5F003F
:100F8000606162006364650066676800696A6B009F
:100F90006C6D6E006F7071007273740075767700FF
:100FA00078797A007B7C7D007E7F8000818283005F
:100FB00084858600878889008A8B8C008D8E8F00BF
:100FC000909192009394950096979800999A9B001F
:100FD0009C9D9E009FA0A100A2A3A400A5A6A7007F
:100FE000A8A9AA00ABACAD00AEAFB000B1B2B300DF
:100FF000B4B5B600B7B8B900BABBBC00BDBEBF003F
:101000000102030004050600070809000A0B0C0092
:101010000D0E0F00101112001314150016171800F2
:10102000191A1B001C1D1E001F2021002223240052
:101030002526270028292A002B2C2D002E2F3000B2
:101040003132330034353600373839003A3B3C0012
:101050003D3E3F00BF4041004243440045464700FB
:1010600048494A004B4C4D004E4F500051525300DE
:1010700054555600575859005A5B5C005D5E5F003E
:10108000606162006364650066676800696A6B009E
:101090006C6D6E006F7071007273740075767700FE
:1010A00078797A007B7C7D007E7F8000818283005E
:1010B00084858600878889008A8B8C008D8E8F00BE
:1010C000909192009394950096979800999A9B001E
:1010D0009C9D9E009FA0A100A2A3A400A5A6A7007E
:1010E000A8A9AA00ABACAD00AEAFB000B1B2B300DE
:1010F000B4B5B600B7B8B900BABBBC00BDBEBF003E
:101100000102030004050600070809000A0B0C0091
:101110000D0E0F00101112001314150016171800F1
:10112000191A1B001C1D1E001F2021002223240051
:101130002526270028292A002B2C2D002E2F3000B1
:101140003132330034353600373839003A3B3C0011
:101150003D3E3F00BF4041004243440045464700FA
:1011600048494A004B4C4D004E4F500051525300DD
:1011700054555600575859005A5B5C005D5E5F003D
:10118000606162006364650066676800696A6B009D
:101190006C6D6E006F7071007273740075767700FD
:1011A00078797A007B7C7D007E7F8000818283005D
:1011B00084858600878889008A8B8C008D8E8F00BD
:1011C000909192009394950096979800999A9B001D
:1011D0009C9D9E009FA0A100A2A3A400A5A6A7007D
:1011E000A8A9AA00ABACAD00AEAFB000B1B2B300DD
:1011F000B4B5B600B7B8B900BABBBC00BDBEBF003D
:101200000102030004050600070809000A0B0C0090
:101210000D0E0F00101112001314150016171800F0
:10122000191A1B001C1D1E001F2021002223240050
:101230002526270028292A002B2C2D002E2F3000B0
:101240003132330034353600373839003A3B3C0010
:101250003D3E3F00BF4041004243440045464700F9
:1012600048494A004B4C4D004E4F500051525300DC
:1012700054555600575859005A5B5C005D5E5F003C
:10128000606162006364650066676800696A6B009C
:101290006C6D6E006F7071007273740075767700FC
:1012A00078797A007B7C7D007E7F8000818283005C
:1012B00084858600878889008A8B8C008D8E8F00BC
:1012C000909192009394950096979800999A9B001C
:1012D0009C9D9E009FA0A100A2A3A400A5A6A7007C
:1012E000A8A9AA00ABACAD00AEAFB000B1B2B300DC
:1012F000B4B5B600B7B8B900BABBBC00BDBEBF003C
:101300000102030004050600070809000A0B0C008F
:101310000D0E0F00101112001314150016171800EF
:10132000191A1B001C1D1E001F202100222324004F
:101330002526270028292A002B2C2D002E2F3000AF
:101340003132330034353600373839003A3B3C000F
:101350003D3E3F00BF4041004243440045464700F8
:1013600048494A004B4C4D004E4F500051525300DB
:1013700054555600575859005A5B5C005D5E5F003B
:10138000606162006364650066676800696A6B009B
:101390006C6D6E006F7071007273740075767700FB
:1013A00078797A007B7C7D007E7F8000818283005B
:1013B00084858600878889008A8B8C008D8E8F00BB
:1013C000909192009394950096979800999A9B001B
:1013D0009C9D9E009FA0A100A2A3A400A5A6A7007B
:1013E000A8A9AA00ABACAD00AEAFB000B1B2B300DB
:1013F000B4B5B600B7B8B900BABBBC00BDBEBF003B
:101400000102030004050600070809000A0B0C008E
:101410000D0E0F00101112001314150016171800EE
:10142000191A1B001C1D1E001F202100222324004E
:101430002526270028292A002B2C2D002E2F3000AE
:101440003132330034353600373839003A3B3C000E
:101450003D3E3F00BF4041004243440045464700F7
:1014600048494A004B4C4D004E4F500051525300DA
:1014700054555600575859005A5B5C005D5E5F003A
:10148000606162006364650066676800696A6B009A
:101490006C6D6E006F7071007273740075767700FA
:1014A00078797A007B7C7D007E7F8000818283005A
:1014B00084858600878889008A8B8C008D8E8F00BA
:1014C000909192009394950096979800999A9B001A
:1014D0009C9D9E009FA0A100A2A3A400A5A6A7007A
:1014E000A8A9AA00ABACAD00AEAFB000B1B2B300DA
:1014F000B4B5B600B7B8B900BABBBC00BDBEBF003A
:101500000102030004050600070809000A0B0C008D
:101510000D0E0F00101112001314150016171800ED
:10152000191A1B001C1D1E001F202100222324004D
:101530002526270028292A002B2C2D002E2F3000AD
:101540003132330034353600373839003A3B3C000D
:101550003D3E3F00BF4041004243440045464700F6
:1015600048494A004B4C4D004E4F500051525300D9
:1015700054555600575859005A5B5C005D5E5F0039
:10158000606162006364650066676800696A6B0099
:101590006C6D6E006F7071007273740075767700F9
:1015A00078797A007B7C7D007E7F80008182830059
:1015B00084858600878889008A8B8C008D8E8F00B9
:1015C000909192009394950096979800999A9B0019
:1015D0009C9D9E009FA0A100A2A3A400A5A6A70079
:1015E000A8A9AA00ABACAD00AEAFB000B1B2B300D9
:1015F000B4B5B600B7B8B900BABBBC00BDBEBF0039
:101600000102030004050600070809000A0B0C008C
:101610000D0E0F00101112001314150016171800EC
:10162000191A1B001C1D1E001F202100222324004C
:101630002526270028292A002B2C2D002E2F3000AC
:101640003132330034353600373839003A3B3C000C
:101650003D3E3F00BF4041004243440045464700F5
:1016600048494A004B4C4D004E4F500051525300D8
:1016700054555600575859005A5B5C005D5E5F0038
:10168000606162006364650066676800696A6B0098
:101690006C6D6E006F7071007273740075767700F8
:1016A00078797A007B7C7D007E7F80008182830058
:1016B00084858600878889008A8B8C008D8E8F00B8
:1016C000909192009394950096979800999A9B0018
:1016D0009C9D9E009FA0A100A2A3A400A5A6A70078
:1016E000A8A9AA00ABACAD00AEAFB000B1B2B300D8
:1016F000B4B5B600B7B8B900BABBBC00BDBEBF0038
:101700000102030004050600070809000A0B0C008B
:101710000D0E0F00101112001314150016171800EB
:10172000191A1B001C1D1E001F202100222324004B
:101730002526270028292A002B2C2D002E2F3000AB
:101740003132330034353600373839003A3B3C000B
:101750003D3E3F00BF4041004243440045464700F4
:1017600048494A004B4C4D004E4F500051525300D7
:1017700054555600575859005A5B5C005D5E5F0037
:10178000606162006364650066676800696A6B0097
:101790006C6D6E006F7071007273740075767700F7
:1017A00078797A007B7C7D007E7F80008182830057
:1017B00084858600878889008A8B8C008D8E8F00B7
:1017C000909192009394950096979800999A9B0017
:1017D0009C9D9E009FA0A100A2A3A400A5A6A70077
:1017E000A8A9AA00ABACAD00AEAFB000B1B2B300D7
:1017F000B4B5B600B7B8B900BABBBC00BDBEBF0037
:101800000102030004050600070809000A0B0C008A
:101810000D0E0F00101112001314150016171800EA
:10182000191A1B001C1D1E001F202100222324004A
:101830002526270028292A002B2C2D002E2F3000AA
:101840003132330034353600373839003A3B3C000A
:101850003D3E3F00BF4041004243440045464700F3
:1018600048494A004B4C4D004E4F500051525300D6
:1018700054555600575859005A5B5C005D5E5F0036
:10188000606162006364650066676800696A6B0096
:101890006C6D6E006F7071007273740075767700F6
:1018A00078797A007B7C7D007E7F80008182830056
:1018B00084858600878889008A8B8C008D8E8F00B6
:1018C000909192009394950096979800999A9B0016
:1018D0009C9D9E009FA0A100A2A3A400A5A6A70076
:1018E000A8A9AA00ABACAD00AEAFB000B1B2B300D6
:1018F000B4B5B600B7B8B900BABBBC00BDBEBF0036
:101900000102030004050600070809000A0B0C0089
:101910000D0E0F00101112001314150016171800E9
:10192000191A1B001C1D1E001F2021002223240049
:101930002526270028292A002B2C2D002E2F3000A9
:101940003132330034353600373839003A3B3C0009
:101950003D3E3F00BF4041004243440045464700F2
:1019600048494A004B4C4D004E4F500051525300D5
:1019700054555600575859005A5B5C005D5E5F0035
:10198000606162006364650066676800696A6B0095
:101990006C6D6E006F7071007273740075767700F5
:1019A00078797A007B7C7D007E7F80008182830055
:1019B00084858600878889008A8B8C008D8E8F00B5
:1019C000909192009394950096979800999A9B0015
:1019D0009C9D9E009FA0A100A2A3A400A5A6A70075
:1019E000A8A9AA00ABACAD00AEAFB000B1B2B300D5
:1019F000B4B5B600B7B8B900BABBBC00BDBEBF0035
:101A00000102030004050600070809000A0B0C0088
:101A10000D0E0F00101112001314150016171800E8
:101A2000191A1B001C1D1E001F2021002223240048
:101A30002526270028292A002B2C2D002E2F3000A8
:101A40003132330034353600373839003A3B3C0008
:101A50003D3E3F00BF4041004243440045464700F1
:101A600048494A004B4C4D004E4F500051525300D4
:101A700054555600575859005A5B5C005D5E5F0034
:101A8000606162006364650066676800696A6B0094
:101A90006C6D6E006F7071007273740075767700F4
:101AA00078797A007B7C7D007E7F80008182830054
:101AB00084858600878889008A8B8C008D8E8F00B4
:101AC000909192009394950096979800999A9B0014
:101AD0009C9D9E009FA0A100A2A3A400A5A6A70074
:101AE000A8A9AA00ABACAD00AEAFB000B1B2B300D4
:101AF000B4B5B600B7B8B900BABBBC00BDBEBF0034
:101B00000102030004050600070809000A0B0C0087
:101B10000D0E0F00101112001314150016171800E7
:101B2000191A1B001C1D1E001F2021002223240047
:101B30002526270028292A002B2C2D002E2F3000A7
:101B40003132330034353600373839003A3B3C0007
:101B50003D3E3F00BF4041004243440045464700F0
:101B600048494A004B4C4D004E4F500051525300D3
:101B700054555600575859005A5B5C005D5E5F0033
:101B8000606162006364650066676800696A6B0093
:101B90006C6D6E006F7071007273740075767700F3
:101BA00078797A007B7C7D007E7F80008182830053
:101BB00084858600878889008A8B8C008D8E8F00B3
:101BC000909192009394950096979800999A9B0013
:101BD0009C9D9E009FA0A100A2A3A400A5A6A70073
:101BE000A8A9AA00ABACAD00AEAFB000B1B2B300D3
:101BF000B4B5B600B7B8B900BABBBC00BDBEBF0033
:101C00000102030004050600070809000A0B0C0086
:101C10000D0E0F00101112001314150016171800E6
:101C2000191A1B001C1D1E001F2021002223240046
:101C30002526270028292A002B2C2D002E2F3000A6
:101C40003132330034353600373839003A3B3C0006
:101C50003D3E3F00BF4041004243440045464700EF
:101C600048494A004B4C4D004E4F500051525300D2
:101C700054555600575859005A5B5C005D5E5F0032
:101C8000606162006364650066676800696A6B0092
:101C90006C6D6E006F7071007273740075767700F2
:101CA00078797A007B7C7D007E7F80008182830052
:101CB00084858600878889008A8B8C008D8E8F00B2
:101CC000909192009394950096979800999A9B0012
:101CD0009C9D9E009FA0A100A2A3A400A5A6A70072
:101CE000A8A9AA00ABACAD00AEAFB000B1B2B300D2
:101CF000B4B5B600B7B8B900BABBBC00BDBEBF0032
:101D00000102030004050600070809000A0B0C0085
:101D10000D0E0F00101112001314150016171800E5
:101D2000191A1B001C1D1E001F2021002223240045
:101D30002526270028292A002B2C2D002E2F3000A5
:101D40003132330034353600373839003A3B3C0005
:101D50003D3E3F00BF4041004243440045464700EE
:101D600048494A004B4C4D004E4F500051525300D1
:101D700054555600575859005A5B5C005D5E5F0031
:101D8000606162006364650066676800696A6B0091
:101D90006C6D6E006F7071007273740075767700F1
:101DA00078797A007B7C7D007E7F80008182830051
:101DB00084858600878889008A8B8C008D8E8F00B1
:101DC000909192009394950096979800999A9B0011
:101DD0009C9D9E009FA0A100A2A3A400A5A6A70071
:101DE000A8A9AA00ABACAD00AEAFB000B1B2B300D1
:101DF000B4B5B600B7B8B900BABBBC00BDBEBF0031
:101E00000102030004050600070809000A0B0C0084
:101E10000D0E0F00101112001314150016171800E4
:101E2000191A1B001C1D1E001F2021002223240044
:101E30002526270028292A002B2C2D002E2F3000A4
:101E40003132330034353600373839003A3B3C0004
:101E50003D3E3F00BF4041004243440045464700ED
:101E600048494A004B4C4D004E4F500051525300D0
:101E700054555600575859005A5B5C005D5E5F0030
:101E8000606162006364650066676800696A6B0090
:101E90006C6D6E006F7071007273740075767700F0
:101EA00078797A007B7C7D007E7F80008182830050
:101EB00084858600878889008A8B8C008D8E8F00B0
:101EC000909192009394950096979800999A9B0010
:101ED0009C9D9E009FA0A100A2A3A400A5A6A70070
:101EE000A8A9AA00ABACAD00AEAFB000B1B2B300D0
:101EF000B4B5B600B7B8B900BABBBC00BDBEBF0030
:101F00000102030004050600070809000A0B0C0083
:101F10000D0E0F00101112001314150016171800E3
:101F2000191A1B001C1D1E001F2021002223240043
:101F30002526270028292A002B2C2D002E2F3000A3
:101F40003132330034353600373839003A3B3C0003
:101F50003D3E3F00BF4041004243440045464700EC
:101F600048494A004B4C4D004E4F500051525300CF
:101F700054555600575859005A5B5C005D5E5F002F
:101F8000606162006364650066676800696A6B008F
:101F90006C6D6E006F7071007273740075767700EF
:101FA00078797A007B7C7D007E7F8000818283004F
:101FB00084858600878889008A8B8C008D8E8F00AF
:101FC000909192009394950096979800999A9B000F
:101FD0009C9D9E009FA0A100A2A3A400A5A6A7006F
:101FE000A8A9AA00ABACAD00AEAFB000B1B2B300CF
:101FF000B4B5B600B7B8B900BABBBC00BDBEBF002F
:102000000102030004050600070809000A0B0C0082
:102010000D0E0F00101112001314150016171800E2
:10202000191A1B001C1D1E001F2021002223240042
:102030002526270028292A002B2C2D002E2F3000A2
:102040003132330034353600373839003A3B3C0002
:102050003D3E3F00BF4041004243440045464700EB
:1020600048494A004B4C4D004E4F500051525300CE
:1020700054555600575859005A5B5C005D5E5F002E
:10208000606162006364650066676800696A6B008E
:102090006C6D6E006F7071007273740075767700EE
:1020A00078797A007B7C7D007E7F8000818283004E
:1020B00084858600878889008A8B8C008D8E8F00AE
:1020C000909192009394950096979800999A9B000E
:1020D0009C9D9E009FA0A100A2A3A400A5A6A7006E
:1020E000A8A9AA00ABACAD00AEAFB000B1B2B300CE
:1020F000B4B5B600B7B8B900BABBBC00BDBEBF002E
:102100000102030004050600070809000A0B0C0081
:102110000D0E0F00101112001314150016171800E1
:10212000191A1B001C1D1E001F2021002223240041
:102130002526270028292A002B2C2D002E2F3000A1
:102140003132330034353600373839003A3B3C0001
:102150003D3E3F00BF4041004243440045464700EA
:1021600048494A004B4C4D004E4F500051525300CD
:1021700054555600575859005A5B5C005D5E5F002D
:10218000606162006364650066676800696A6B008D
:102190006C6D6E006F7071007273740075767700ED
:1021A00078797A007B7C7D007E7F8000818283004D
:1021B00084858600878889008A8B8C008D8E8F00AD
:1021C000909192009394950096979800999A9B000D
:1021D0009C9D9E009FA0A100A2A3A400A5A6A7006D
:1021E000A8A9AA00ABACAD00AEAFB000B1B2B300CD
:1021F000B4B5B600B7B8B900BABBBC00BDBEBF002D
:102200000102030004050600070809000A0B0C0080
:102210000D0E0F00101112001314150016171800E0
:10222000191A1B001C1D1E001F2021002223240040
:102230002526270028292A002B2C2D002E2F3000A0
:102240003132330034353600373839003A3B3C0000
:102250003D3E3F00BF4041004243440045464700E9
:1022600048494A004B4C4D004E4F500051525300CC
:1022700054555600575859005A5B5C005D5E5F002C
:10228000606162006364650066676800696A6B008C
:102290006C6D6E006F7071007273740075767700EC
:1022A00078797A007B7C7D007E7F8000818283004C
:1022B00084858600878889008A8B8C008D8E8F00AC
:1022C000909192009394950096979800999A9B000C
:1022D0009C9D9E009FA0A100A2A3A400A5A6A7006C
:1022E000A8A9AA00ABACAD00AEAFB000B1B2B300CC
:1022F000B4B5B600B7B8B900BABBBC00BDBEBF002C
:102300000102030004050600070809000A0B0C007F
:102310000D0E0F00101112001314150016171800DF
:10232000191A1B001C1D1E001F202100222324003F
:102330002526270028292A002B2C2D002E2F30009F
:102340003132330034353600373839003A3B3C00FF
:102350003D3E3F00BF4041004243440045464700E8
:1023600048494A004B4C4D004E4F500051525300CB
:1023700054555600575859005A5B5C005D5E5F002B
:10238000606162006364650066676800696A6B008B
:102390006C6D6E006F7071007273740075767700EB
:1023A00078797A007B7C7D007E7F8000818283004B
:1023B00084858600878889008A8B8C008D8E8F00AB
:1023C000909192009394950096979800999A9B000B
:1023D0009C9D9E009FA0A100A2A3A400A5A6A7006B
:1023E000A8A9AA00ABACAD00AEAFB000B1B2B300CB
:1023F000B4B5B600B7B8B900BABBBC00BDBEBF002B
:102400000102030004050600070809000A0B0C007E
:102410000D0E0F00101112001314150016171800DE
:10242000191A1B001C1D1E001F202100222324003E
:102430002526270028292A002B2C2D002E2F30009E
:102440003132330034353600373839003A3B3C00FE
:102450003D3E3F00BF4041004243440045464700E7
:1024600048494A004B4C4D004E4F500051525300CA
:1024700054555600575859005A5B5C005D5E5F002A
:10248000606162006364650066676800696A6B008A
:102490006C6D6E006F7071007273740075767700EA
:1024A00078797A007B7C7D007E7F8000818283004A
:1024B00084858600878889008A8B8C008D8E8F00AA
:1024C000909192009394950096979800999A9B000A
:1024D0009C9D9E009FA0A100A2A3A400A5A6A7006A
:1024E000A8A9AA00ABACAD00AEAFB000B1B2B300CA
:1024F000B4B5B600B7B8B900BABBBC00BDBEBF002A
:102500000102030004050600070809000A0B0C007D
:102510000D0E0F00101112001314150016171800DD
:10252000191A1B001C1D1E001F202100222324003D
:102530002526270028292A002B2C2D002E2F30009D
:102540003132330034353600373839003A3B3C00FD
:102550003D3E3F00BF4041004243440045464700E6
:1025600048494A004B4C4D004E4F500051525300C9
:1025700054555600575859005A5B5C005D5E5F0029
:10258000606162006364650066676800696A6B0089
:102590006C6D6E006F7071007273740075767700E9
:1025A00078797A007B7C7D007E7F80008182830049
:1025B00084858600878889008A8B8C008D8E8F00A9
:1025C000909192009394950096979800999A9B0009
:1025D0009C9D9E009FA0A100A2A3A400A5A6A70069
:1025E000A8A9AA00ABACAD00AEAFB000B1B2B300C9
:1025F000B4B5B600B7B8B900BABBBC00BDBEBF0029
:102600000102030004050600070809000A0B0C007C
:102610000D0E0F00101112001314150016171800DC
:10262000191A1B001C1D1E001F202100222324003C
:102630002526270028292A002B2C2D002E2F30009C
:102640003132330034353600373839003A3B3C00FC
:102650003D3E3F00BF4041004243440045464700E5
:1026600048494A004B4C4D004E4F500051525300C8
:1026700054555600575859005A5B5C005D5E5F0028
:10268000606162006364650066676800696A6B0088
:102690006C6D6E006F7071007273740075767700E8
:1026A00078797A007B7C7D007E7F80008182830048
:1026B00084858600878889008A8B8C008D8E8F00A8
:1026C000909192009394950096979800999A9B0008
:1026D0009C9D9E009FA0A100A2A3A400A5A6A70068
:1026E000A8A9AA00ABACAD00AEAFB000B1B2B300C8
:1026F000B4B5B600B7B8B900BABBBC00BDBEBF0028
:102700000102030004050600070809000A0B0C007B
:102710000D0E0F00101112001314150016171800DB
:10272000191A1B001C1D1E001F202100222324003B
:102730002526270028292A002B2C2D002E2F30009B
:102740003132330034353600373839003A3B3C00FB
:102750003D3E3F00BF4041004243440045464700E4
:1027600048494A004B4C4D004E4F500051525300C7
:1027700054555600575859005A5B5C005D5E5F0027
:10278000606162006364650066676800696A6B0087
:102790006C6D6E006F7071007273740075767700E7
:1027A00078797A007B7C7D007E7F80008182830047
:1027B00084858600878889008A8B8C008D8E8F00A7
:1027C000909192009394950096979800999A9B0007
:1027D0009C9D9E009FA0A100A2A3A400A5A6A70067
:1027E000A8A9AA00ABACAD00AEAFB000B1B2B300C7
:1027F000B4B5B600B7B8B900BABBBC00BDBEBF0027
:102800000102030004050600070809000A0B0C007A
:102810000D0E0F00101112001314150016171800DA
:10282000191A1B001C1D1E001F202100222324003A
:102830002526270028292A002B2C2D002E2F30009A
:102840003132330034353600373839003A3B3C00FA
:102850003D3E3F00BF4041004243440045464700E3
:1028600048494A004B4C4D004E4F500051525300C6
:1028700054555600575859005A5B5C005D5E5F0026
:10288000606162006364650066676800696A6B0086
:102890006C6D6E006F7071007273740075767700E6
:1028A00078797A007B7C7D007E7F80008182830046
:1028B00084858600878889008A8B8C008D8E8F00A6
:1028C000909192009394950096979800999A9B0006
:1028D0009C9D9E009FA0A100A2A3A400A5A6A70066
:1028E000A8A9AA00ABACAD00AEAFB000B1B2B300C6
:1028F000B4B5B600B7B8B900BABBBC00BDBEBF0026
:102900000102030004050600070809000A0B0C0079
:102910000D0E0F00101112001314150016171800D9
:10292000191A1B001C1D1E001F2021002223240039
:102930002526270028292A002B2C2D002E2F300099
:102940003132330034353600373839003A3B3C00F9
:102950003D3E3F00BF4041004243440045464700E2
:1029600048494A004B4C4D004E4F500051525300C5
:1029700054555600575859005A5B5C005D5E5F0025
:10298000606162006364650066676800696A6B0085
:102990006C6D6E006F7071007273740075767700E5
:1029A00078797A007B7C7D007E7F80008182830045
:1029B00084858600878889008A8B8C008D8E8F00A5
:1029C000909192009394950096979800999A9B0005
:1029D0009C9D9E009FA0A100A2A3A400A5A6A70065
:1029E000A8A9AA00ABACAD00AEAFB000B1B2B300C5
:1029F000B4B5B600B7B8B900BABBBC00BDBEBF0025
:102A00000102030004050600070809000A0B0C0078
:102A10000D0E0F00101112001314150016171800D8
:102A2000191A1B001C1D1E001F2021002223240038
:102A30002526270028292A002B2C2D002E2F300098
:102A40003132330034353600373839003A3B3C00F8
:102A50003D3E3F00BF4041004243440045464700E1
:102A600048494A004B4C4D004E4F500051525300C4
:102A700054555600575859005A5B5C005D5E5F0024
:102A8000606162006364650066676800696A6B0084
:102A90006C6D6E006F7071007273740075767700E4
:102AA00078797A007B7C7D007E7F80008182830044
:102AB00084858600878889008A8B8C008D8E8F00A4
:102AC000909192009394950096979800999A9B0004
:102AD0009C9D9E009FA0A100A2A3A400A5A6A70064
:102AE000A8A9AA00ABACAD00AEAFB000B1B2B300C4
:102AF000B4B5B600B7B8B900BABBBC00BDBEBF0024
:102B00000102030004050600070809000A0B0C0077
:102B10000D0E0F00101112001314150016171800D7
:102B2000191A1B001C1D1E001F2021002223240037
:102B30002526270028292A002B2C2D002E2F300097
:102B40003132330034353600373839003A3B3C00F7
:102B50003D3E3F00BF4041004243440045464700E0
:102B600048494A004B4C4D004E4F500051525300C3
:102B700054555600575859005A5B5C005D5E5F0023
:102B8000606162006364650066676800696A6B0083
:102B90006C6D6E006F7071007273740075767700E3
:102BA00078797A007B7C7D007E7F80008182830043
:102BB00084858600878889008A8B8C008D8E8F00A3
:102BC000909192009394950096979800999A9B0003
:102BD0009C9D9E009FA0A100A2A3A400A5A6A70063
:102BE000A8A9AA00ABACAD00AEAFB000B1B2B300C3
:102BF000B4B5B600B7B8B900BABBBC00BDBEBF0023
:102C00000102030004050600070809000A0B0C0076
:102C10000D0E0F00101112001314150016171800D6
:102C2000191A1B001C1D1E001F2021002223240036
:102C30002526270028292A002B2C2D002E2F300096
:102C40003132330034353600373839003A3B3C00F6
:102C50003D3E3F00BF4041004243440045464700DF
:102C600048494A004B4C4D004E4F500051525300C2
:102C700054555600575859005A5B5C005D5E5F0022
:102C8000606162006364650066676800696A6B0082
:102C90006C6D6E006F7071007273740075767700E2
:102CA00078797A007B7C7D007E7F80008182830042
:102CB00084858600878889008A8B8C008D8E8F00A2
:102CC000909192009394950096979800999A9B0002
:102CD0009C9D9E009FA0A100A2A3A400A5A6A70062
:102CE000A8A9AA00ABACAD00AEAFB000B1B2B300C2
:102CF000B4B5B600B7B8B900BABBBC00BDBEBF0022
:102D00000102030004050600070809000A0B0C0075
:102D10000D0E0F00101112001314150016171800D5
:102D2000191A1B001C1D1E001F2021002223240035
:102D30002526270028292A002B2C2D002E2F300095
:102D40003132330034353600373839003A3B3C00F5
:102D50003D3E3F00BF4041004243440045464700DE
:102D600048494A004B4C4D004E4F500051525300C1
:102D700054555600575859005A5B5C005D5E5F0021
:102D8000606162006364650066676800696A6B0081
:102D90006C6D6E006F7071007273740075767700E1
:102DA00078797A007B7C7D007E7F80008182830041
:102DB00084858600878889008A8B8C008D8E8F00A1
:102DC000909192009394950096979800999A9B0001
:102DD0009C9D9E009FA0A100A2A3A400A5A6A70061
:102DE000A8A9AA00ABACAD00AEAFB000B1B2B300C1
:102DF000B4B5B600B7B8B900BABBBC00BDBEBF0021
:102E00000102030004050600070809000A0B0C0074
:102E10000D0E0F00101112001314150016171800D4
:102E2000191A1B001C1D1E001F2021002223240034
:102E30002526270028292A002B2C2D002E2F300094
:102E40003132330034353600373839003A3B3C00F4
:102E50003D3E3F00BF4041004243440045464700DD
:102E600048494A004B4C4D004E4F500051525300C0
:102E700054555600575859005A5B5C005D5E5F0020
:102E8000606162006364650066676800696A6B0080
:102E90006C6D6E006F7071007273740075767700E0
:102EA00078797A007B7C7D007E7F80008182830040
:102EB00084858600878889008A8B8C008D8E8F00A0
:102EC000909192009394950096979800999A9B0000
:102ED0009C9D9E009FA0A100A2A3A400A5A6A70060
:102EE000A8A9AA00ABACAD00AEAFB000B1B2B300C0
:102EF000B4B5B600B7B8B900BABBBC00BDBEBF0020
:102F00000102030004050600070809000A0B0C0073
:102F10000D0E0F00101112001314150016171800D3
:102F2000191A1B001C1D1E001F2021002223240033
:102F30002526270028292A002B2C2D002E2F300093
:102F40003132330034353600373839003A3B3C00F3
:102F50003D3E3F00BF4041004243440045464700DC
:102F600048494A004B4C4D004E4F500051525300BF
:102F700054555600575859005A5B5C005D5E5F001F
:102F8000606162006364650066676800696A6B007F
:102F90006C6D6E006F7071007273740075767700DF
:102FA00078797A007B7C7D007E7F8000818283003F
:102FB00084858600878889008A8B8C008D8E8F009F
:102FC000909192009394950096979800999A9B00FF
:102FD0009C9D9E009FA0A100A2A3A400A5A6A7005F
:102FE000A8A9AA00ABACAD00AEAFB000B1B2B300BF
:102FF000B4B5B600B7B8B900BABBBC00BDBEBF001F
:103000000102030004050600070809000A0B0C0072
:103010000D0E0F00101112001314150016171800D2
:10302000191A1B001C1D1E001F2021002223240032
:103030002526270028292A002B2C2D002E2F300092
:103040003132330034353600373839003A3B3C00F2
:103050003D3E3F00BF4041004243440045464700DB
:1030600048494A004B4C4D004E4F500051525300BE
:1030700054555600575859005A5B5C005D5E5F001E
:10308000606162006364650066676800696A6B007E
:103090006C6D6E006F7071007273740075767700DE
:1030A00078797A007B7C7D007E7F8000818283003E
:1030B00084858600878889008A8B8C008D8E8F009E
:1030C000909192009394950096979800999A9B00FE
:1030D0009C9D9E009FA0A100A2A3A400A5A6A7005E
:1030E000A8A9AA00ABACAD00AEAFB000B1B2B300BE
:1030F000B4B5B600B7B8B900BABBBC00BDBEBF001E
:103100000102030004050600070809000A0B0C0071
:103110000D0E0F00101112001314150016171800D1
:10312000191A1B001C1D1E001F2021002223240031
:103130002526270028292A002B2C2D002E2F300091
:103140003132330034353600373839003A3B3C00F1
:103150003D3E3F00BF4041004243440045464700DA
:1031600048494A004B4C4D004E4F500051525300BD
:1031700054555600575859005A5B5C005D5E5F001D
:10318000606162006364650066676800696A6B007D
:103190006C6D6E006F7071007273740075767700DD
:1031A00078797A007B7C7D007E7F8000818283003D
:1031B00084858600878889008A8B8C008D8E8F009D
:1031C000909192009394950096979800999A9B00FD
:1031D0009C9D9E009FA0A100A2A3A400A5A6A7005D
:1031E000A8A9AA00ABACAD00AEAFB000B1B2B300BD
:1031F000B4B5B600B7B8B900BABBBC00BDBEBF001D
:103200000102030004050600070809000A0B0C0070
:103210000D0E0F00101112001314150016171800D0
:10322000191A1B001C1D1E001F2021002223240030
:103230002526270028292A002B2C2D002E2F300090
:103240003132330034353600373839003A3B3C00F0
:103250003D3E3F00BF4041004243440045464700D9
:1032600048494A004B4C4D004E4F500051525300BC
:1032700054555600575859005A5B5C005D5E5F001C
:10328000606162006364650066676800696A6B007C
:103290006C6D6E006F7071007273740075767700DC
:1032A00078797A007B7C7D007E7F8000818283003C
:1032B00084858600878889008A8B8C008D8E8F009C
:1032C000909192009394950096979800999A9B00FC
:1032D0009C9D9E009FA0A100A2A3A400A5A6A7005C
:1032E000A8A9AA00ABACAD00AEAFB000B1B2B300BC
:1032F000B4B5B600B7B8B900BABBBC00BDBEBF001C
:103300000102030004050600070809000A0B0C006F
:103310000D0E0F00101112001314150016171800CF
:10332000191A1B001C1D1E001F202100222324002F
:103330002526270028292A002B2C2D002E2F30008F
:103340003132330034353600373839003A3B3C00EF
:103350003D3E3F00BF4041004243440045464700D8
:1033600048494A004B4C4D004E4F500051525300BB
:1033700054555600575859005A5B5C005D5E5F001B
:10338000606162006364650066676800696A6B007B
:103390006C6D6E006F7071007273740075767700DB
:1033A00078797A007B7C7D007E7F8000818283003B
:1033B00084858600878889008A8B8C008D8E8F009B
:1033C000909192009394950096979800999A9B00FB
:1033D0009C9D9E009FA0A100A2A3A400A5A6A7005B
:1033E000A8A9AA00ABACAD00AEAFB000B1B2B300BB
:1033F000B4B5B600B7B8B900BABBBC00BDBEBF001B
:103400000102030004050600070809000A0B0C006E
:103410000D0E0F00101112001314150016171800CE
:10342000191A1B001C1D1E001F202100222324002E
:103430002526270028292A002B2C2D002E2F30008E
:103440003132330034353600373839003A3B3C00EE
:103450003D3E3F00BF4041004243440045464700D7
:1034600048494A004B4C4D004E4F500051525300BA
:1034700054555600575859005A5B5C005D5E5F001A
:10348000606162006364650066676800696A6B007A
:103490006C6D6E006F7071007273740075767700DA
:1034A00078797A007B7C7D007E7F8000818283003A
:1034B00084858600878889008A8B8C008D8E8F009A
:1034C000909192009394950096979800999A9B00FA
:1034D0009C9D9E009FA0A100A2A3A400A5A6A7005A
:1034E000A8A9AA00ABACAD00AEAFB000B1B2B300BA
:1034F000B4B5B600B7B8B900BABBBC00BDBEBF001A
:103500000102030004050600070809000A0B0C006D
:103510000D0E0F00101112001314150016171800CD
:10352000191A1B001C1D1E001F202100222324002D
:103530002526270028292A002B2C2D002E2F30008D
:103540003132330034353600373839003A3B3C00ED
:103550003D3E3F00BF4041004243440045464700D6
:1035600048494A004B4C4D004E4F500051525300B9
:1035700054555600575859005A5B5C005D5E5F0019
:10358000606162006364650066676800696A6B0079
:103590006C6D6E006F7071007273740075767700D9
:1035A00078797A007B7C7D007E7F80008182830039
:1035B00084858600878889008A8B8C008D8E8F0099
:1035C000909192009394950096979800999A9B00F9
:1035D0009C9D9E009FA0A100A2A3A400A5A6A70059
:1035E000A8A9AA00ABACAD00AEAFB000B1B2B300B9
:1035F000B4B5B600B7B8B900BABBBC00BDBEBF0019
:103600000102030004050600070809000A0B0C006C
:103610000D0E0F00101112001314150016171800CC
:10362000191A1B001C1D1E001F202100222324002C
:103630002526270028292A002B2C2D002E2F30008C
:103640003132330034353600373839003A3B3C00EC
:103650003D3E3F00BF4041004243440045464700D5
:1036600048494A004B4C4D004E4F500051525300B8
:1036700054555600575859005A5B5C005D5E5F0018
:10368000606162006364650066676800696A6B0078
:103690006C6D6E006F7071007273740075767700D8
:1036A00078797A007B7C7D007E7F80008182830038
:1036B00084858600878889008A8B8C008D8E8F0098
:1036C000909192009394950096979800999A9B00F8
:1036D0009C9D9E009FA0A100A2A3A400A5A6A70058
:1036E000A8A9AA00ABACAD00AEAFB000B1B2B300B8
:1036F000B4B5B600B7B8B900BABBBC00BDBEBF0018
:103700000102030004050600070809000A0B0C006B
:103710000D0E0F00101112001314150016171800CB
:10372000191A1B001C1D1E001F202100222324002B
:103730002526270028292A002B2C2D002E2F30008B
:103740003132330034353600373839003A3B3C00EB
:103750003D3E3F00BF4041004243440045464700D4
:1037600048494A004B4C4D004E4F500051525300B7
:1037700054555600575859005A5B5C005D5E5F0017
:10378000606162006364650066676800696A6B0077
:103790006C6D6E006F7071007273740075767700D7
:1037A00078797A007B7C7D007E7F80008182830037
:1037B00084858600878889008A8B8C008D8E8F0097
:1037C000909192009394950096979800999A9B00F7
:1037D0009C9D9E009FA0A100A2A3A400A5A6A70057
:1037E000A8A9AA00ABACAD00AEAFB000B1B2B300B7
:1037F000B4B5B600B7B8B900BABBBC00BDBEBF0017
:103800000102030004050600070809000A0B0C006A
:103810000D0E0F00101112001314150016171800CA
:10382000191A1B001C1D1E001F202100222324002A
:103830002526270028292A002B2C2D002E2F30008A
:103840003132330034353600373839003A3B3C00EA
:103850003D3E3F00BF4041004243440045464700D3
:1038600048494A004B4C4D004E4F500051525300B6
:1038700054555600575859005A5B5C005D5E5F0016
:10388000606162006364650066676800696A6B0076
:103890006C6D6E006F7071007273740075767700D6
:1038A00078797A007B7C7D007E7F80008182830036
:1038B00084858600878889008A8B8C008D8E8F0096
:1038C000909192009394950096979800999A9B00F6
:1038D0009C9D9E009FA0A100A2A3A400A5A6A70056
:1038E000A8A9AA00ABACAD00AEAFB000B1B2B300B6
:1038F000B4B5B600B7B8B900BABBBC00BDBEBF0016
:103900000102030004050600070809000A0B0C0069
:103910000D0E0F00101112001314150016171800C9
:10392000191A1B001C1D1E001F2021002223240029
:103930002526270028292A002B2C2D002E2F300089
:103940003132330034353600373839003A3B3C00E9
:103950003D3E3F00BF4041004243440045464700D2
:1039600048494A004B4C4D004E4F500051525300B5
:1039700054555600575859005A5B5C005D5E5F0015
:10398000606162006364650066676800696A6B0075
:103990006C6D6E006F7071007273740075767700D5
:1039A00078797A007B7C7D007E7F80008182830035
:1039B00084858600878889008A8B8C008D8E8F0095
:1039C000909192009394950096979800999A9B00F5
:1039D0009C9D9E009FA0A100A2A3A400A5A6A70055
:1039E000A8A9AA00ABACAD00AEAFB000B1B2B300B5
:1039F000B4B5B600B7B8B900BABBBC00BDBEBF0015
:103A00000102030004050600070809000A0B0C0068
:103A10000D0E0F00101112001314150016171800C8
:103A2000191A1B001C1D1E001F2021002223240028
:103A30002526270028292A002B2C2D002E2F300088
:103A40003132330034353600373839003A3B3C00E8
:103A50003D3E3F00BF4041004243440045464700D1
:103A600048494A004B4C4D004E4F500051525300B4
:103A700054555600575859005A5B5C005D5E5F0014
:103A8000606162006364650066676800696A6B0074
:103A90006C6D6E006F7071007273740075767700D4
:103AA00078797A007B7C7D007E7F80008182830034
:103AB00084858600878889008A8B8C008D8E8F0094
:103AC000909192009394950096979800999A9B00F4
:103AD0009C9D9E009FA0A100A2A3A400A5A6A70054
:103AE000A8A9AA00ABACAD00AEAFB000B1B2B300B4
:103AF000B4B5B600B7B8B900BABBBC00BDBEBF0014
:103B00000102030004050600070809000A0B0C0067
:103B10000D0E0F00101112001314150016171800C7
:103B2000191A1B001C1D1E001F2021002223240027
:103B30002526270028292A002B2C2D002E2F300087
:103B40003132330034353600373839003A3B3C00E7
:103B50003D3E3F00BF4041004243440045464700D0
:103B600048494A004B4C4D004E4F500051525300B3
:103B700054555600575859005A5B5C005D5E5F0013
:103B8000606162006364650066676800696A6B0073
:103B90006C6D6E006F7071007273740075767700D3
:103BA00078797A007B7C7D007E7F80008182830033
:103BB00084858600878889008A8B8C008D8E8F0093
:103BC000909192009394950096979800999A9B00F3
:103BD0009C9D9E009FA0A100A2A3A400A5A6A70053
:103BE000A8A9AA00ABACAD00AEAFB000B1B2B300B3
:103BF000B4B5B600B7B8B900BABBBC00BDBEBF0013
:103C00000102030004050600070809000A0B0C0066
:103C10000D0E0F00101112001314150016171800C6
:103C2000191A1B001C1D1E001F2021002223240026
:103C30002526270028292A002B2C2D002E2F300086
:103C40003132330034353600373839003A3B3C00E6
:103C50003D3E3F00BF4041004243440045464700CF
:103C600048494A004B4C4D004E4F500051525300B2
:103C700054555600575859005A5B5C005D5E5F0012
:103C8000606162006364650066676800696A6B0072
:103C90006C6D6E006F7071007273740075767700D2
:103CA00078797A007B7C7D007E7F80008182830032
:103CB00084858600878889008A8B8C008D8E8F0092
:103CC000909192009394950096979800999A9B00F2
:103CD0009C9D9E009FA0A100A2A3A400A5A6A70052
:103CE000A8A9AA00ABACAD00AEAFB000B1B2B300B2
:103CF000B4B5B600B7B8B900BABBBC00BDBEBF0012
:103D00000102030004050600070809000A0B0C0065
:103D10000D0E0F00101112001314150016171800C5
:103D2000191A1B001C1D1E001F2021002223240025
:103D30002526270028292A002B2C2D002E2F300085
:103D40003132330034353600373839003A3B3C00E5
:103D50003D3E3F00BF4041004243440045464700CE
:103D600048494A004B4C4D004E4F500051525300B1
:103D700054555600575859005A5B5C005D5E5F0011
:103D8000606162006364650066676800696A6B0071
:103D90006C6D6E006F7071007273740075767700D1
:103DA00078797A007B7C7D007E7F80008182830031
:103DB00084858600878889008A8B8C008D8E8F0091
:103DC000909192009394950096979800999A9B00F1
:103DD0009C9D9E009FA0A100A2A3A400A5A6A70051
:103DE000A8A9AA00ABACAD00AEAFB000B1B2B300B1
:103DF000B4B5B600B7B8B900BABBBC00BDBEBF0011
:103E00000102030004050600070809000A0B0C0064
:103E10000D0E0F00101112001314150016171800C4
:103E2000191A1B001C1D1E001F2021002223240024
:103E30002526270028292A002B2C2D002E2F300084
:103E40003132330034353600373839003A3B3C00E4
:103E50003D3E3F00BF4041004243440045464700CD
:103E600048494A004B4C4D004E4F500051525300B0
:103E700054555600575859005A5B5C005D5E5F0010
:103E8000606162006364650066676800696A6B0070
:103E90006C6D6E006F7071007273740075767700D0
:103EA00078797A007B7C7D007E7F80008182830030
:103EB00084858600878889008A8B8C008D8E8F0090
:103EC000909192009394950096979800999A9B00F0
:103ED0009C9D9E009FA0A100A2A3A400A5A6A70050
:103EE000A8A9AA00ABACAD00AEAFB000B1B2B300B0
:103EF000B4B5B600B7B8B900BABBBC00BDBEBF0010
:103F00000102030004050600070809000A0B0C0063
:103F10000D0E0F00101112001314150016171800C3
:103F2000191A1B001C1D1E001F2021002223240023
:103F30002526270028292A002B2C2D002E2F300083
:103F40003132330034353600373839003A3B3C00E3
:103F50003D3E3F00BF4041004243440045464700CC
:103F600048494A004B4C4D004E4F500051525300AF
:103F700054555600575859005A5B5C005D5E5F000F
:103F8000606162006364650066676800696A6B006F
:103F90006C6D6E006F7071007273740075767700CF
:103FA00078797A007B7C7D007E7F8000818283002F
:103FB00084858600878889008A8B8C008D8E8F008F
:103FC000909192009394950096979800999A9B00EF
:103FD0009C9D9E009FA0A100A2A3A400A5A6A7004F
:103FE000A8A9AA00ABACAD00AEAFB000B1B2B300AF
:103FF000B4B5B600B7B8B900BABBBC00BDBEBF000F
:104000000102030004050600070809000A0B0C0062
:104010000D0E0F00101112001314150016171800C2
:10402000191A1B001C1D1E001F2021002223240022
:104030002526270028292A002B2C2D002E2F300082
:104040003132330034353600373839003A3B3C00E2
:104050003D3E3F00BF4041004243440045464700CB
:1040600048494A004B4C4D004E4F500051525300AE
:1040700054555600575859005A5B5C005D5E5F000E
:10408000606162006364650066676800696A6B006E
:104090006C6D6E006F7071007273740075767700CE
:1040A00078797A007B7C7D007E7F8000818283002E
:1040B00084858600878889008A8B8C008D8E8F008E
:1040C000909192009394950096979800999A9B00EE
:1040D0009C9D9E009FA0A100A2A3A400A5A6A7004E
:1040E000A8A9AA00ABACAD00AEAFB000B1B2B300AE
:1040F000B4B5B600B7B8B900BABBBC00BDBEBF000E
:104100000102030004050600070809000A0B0C0061
:104110000D0E0F00101112001314150016171800C1
:10412000191A1B001C1D1E001F2021002223240021
:104130002526270028292A002B2C2D002E2F300081
:104140003132330034353600373839003A3B3C00E1
:104150003D3E3F00BF4041004243440045464700CA
:1041600048494A004B4C4D004E4F500051525300AD
:1041700054555600575859005A5B5C005D5E5F000D
:10418000606162006364650066676800696A6B006D
:104190006C6D6E006F7071007273740075767700CD
:1041A00078797A007B7C7D007E7F8000818283002D
:1041B00084858600878889008A8B8C008D8E8F008D
:1041C000909192009394950096979800999A9B00ED
:1041D0009C9D9E009FA0A100A2A3A400A5A6A7004D
:1041E000A8A9AA00ABACAD00AEAFB000B1B2B300AD
:1041F000B4B5B600B7B8B900BABBBC00BDBEBF000D
:104200000102030004050600070809000A0B0C0060
:104210000D0E0F00101112001314150016171800C0
:10422000191A1B001C1D1E001F2021002223240020
:104230002526270028292A002B2C2D002E2F300080
:104240003132330034353600373839003A3B3C00E0
:104250003D3E3F00BF4041004243440045464700C9
:1042600048494A004B4C4D004E4F500051525300AC
:1042700054555600575859005A5B5C005D5E5F000C
:10428000606162006364650066676800696A6B006C
:104290006C6D6E006F7071007273740075767700CC
:1042A00078797A007B7C7D007E7F8000818283002C
:1042B00084858600878889008A8B8C008D8E8F008C
:1042C000909192009394950096979800999A9B00EC
:1042D0009C9D9E009FA0A100A2A3A400A5A6A7004C
:1042E000A8A9AA00ABACAD00AEAFB000B1B2B300AC
:1042F000B4B5B600B7B8B900BABBBC00BDBEBF000C
:104300000102030004050600070809000A0B0C005F
:104310000D0E0F00101112001314150016171800BF
:10432000191A1B001C1D1E001F202100222324001F
:104330002526270028292A002B2C2D002E2F30007F
:104340003132330034353600373839003A3B3C00DF
:104350003D3E3F00BF4041004243440045464700C8
:1043600048494A004B4C4D004E4F500051525300AB
:1043700054555600575859005A5B5C005D5E5F000B
:10438000606162006364650066676800696A6B006B
:104390006C6D6E006F7071007273740075767700CB
:1043A00078797A007B7C7D007E7F8000818283002B
:1043B00084858600878889008A8B8C008D8E8F008B
:1043C000909192009394950096979800999A9B00EB
:1043D0009C9D9E009FA0A100A2A3A400A5A6A7004B
:1043E000A8A9AA00ABACAD00AEAFB000B1B2B300AB
:1043F000B4B5B600B7B8B900BABBBC00BDBEBF000B
:104400000102030004050600070809000A0B0C005E
:104410000D0E0F00101112001314150016171800BE
:10442000191A1B001C1D1E001F202100222324001E
:104430002526270028292A002B2C2D002E2F30007E
:104440003132330034353600373839003A3B3C00DE
:104450003D3E3F00BF4041004243440045464700C7
:1044600048494A004B4C4D004E4F500051525300AA
:1044700054555600575859005A5B5C005D5E5F000A
:10448000606162006364650066676800696A6B006A
:104490006C6D6E006F7071007273740075767700CA
:1044A00078797A007B7C7D007E7F8000818283002A
:1044B00084858600878889008A8B8C008D8E8F008A
:1044C000909192009394950096979800999A9B00EA
:1044D0009C9D9E009FA0A100A2A3A400A5A6A7004A
:1044E000A8A9AA00ABACAD00AEAFB000B1B2B300AA
:1044F000B4B5B600B7B8B900BABBBC00BDBEBF000A
:104500000102030004050600070809000A0B0C005D
:104510000D0E0F00101112001314150016171800BD
:10452000191A1B001C1D1E001F202100222324001D
:104530002526270028292A002B2C2D002E2F30007D
:104540003132330034353600373839003A3B3C00DD
:104550003D3E3F00BF4041004243440045464700C6
:1045600048494A004B4C4D004E4F500051525300A9
:1045700054555600575859005A5B5C005D5E5F0009
:10458000606162006364650066676800696A6B0069
:104590006C6D6E006F7071007273740075767700C9
:1045A00078797A007B7C7D007E7F80008182830029
:1045B00084858600878889008A8B8C008D8E8F0089
:1045C000909192009394950096979800999A9B00E9
:1045D0009C9D9E009FA0A100A2A3A400A5A6A70049
:1045E000A8A9AA00ABACAD00AEAFB000B1B2B300A9
:1045F000B4B5B600B7B8B900BABBBC00BDBEBF0009
:104600000102030004050600070809000A0B0C005C
:104610000D0E0F00101112001314150016171800BC
:10462000191A1B001C1D1E001F202100222324001C
:104630002526270028292A002B2C2D002E2F30007C
:104640003132330034353600373839003A3B3C00DC
:104650003D3E3F00BF4041004243440045464700C5
:1046600048494A004B4C4D004E4F500051525300A8
:1046700054555600575859005A5B5C005D5E5F0008
:10468000606162006364650066676800696A6B0068
:104690006C6D6E006F7071007273740075767700C8
:1046A00078797A007B7C7D007E7F80008182830028
:1046B00084858600878889008A8B8C008D8E8F0088
:1046C000909192009394950096979800999A9B00E8
:1046D0009C9D9E009FA0A100A2A3A400A5A6A70048
:1046E000A8A9AA00ABACAD00AEAFB000B1B2B300A8
:1046F000B4B5B600B7B8B900BABBBC00BDBEBF0008
:104700000102030004050600070809000A0B0C005B
:104710000D0E0F00101112001314150016171800BB
:10472000191A1B001C1D1E001F202100222324001B
:104730002526270028292A002B2C2D002E2F30007B
:104740003132330034353600373839003A3B3C00DB
:104750003D3E3F00BF4041004243440045464700C4
:1047600048494A004B4C4D004E4F500051525300A7
:1047700054555600575859005A5B5C005D5E5F0007
:10478000606162006364650066676800696A6B0067
:104790006C6D6E006F7071007273740075767700C7
:1047A00078797A007B7C7D007E7F80008182830027
:1047B00084858600878889008A8B8C008D8E8F0087
:1047C000909192009394950096979800999A9B00E7
:1047D0009C9D9E009FA0A100A2A3A400A5A6A70047
:1047E000A8A9AA00ABACAD00AEAFB000B1B2B300A7
:1047F000B4B5B600B7B8B900BABBBC00BDBEBF0007
:104800000102030004050600070809000A0B0C005A
:104810000D0E0F00101112001314150016171800BA
:10482000191A1B001C1D1E001F202100222324001A
:104830002526270028292A002B2C2D002E2F30007A
:104840003132330034353600373839003A3B3C00DA
:104850003D3E3F00BF4041004243440045464700C3
:1048600048494A004B4C4D004E4F500051525300A6
:1048700054555600575859005A5B5C005D5E5F0006
:10488000606162006364650066676800696A6B0066
:104890006C6D6E006F7071007273740075767700C6
:1048A00078797A007B7C7D007E7F80008182830026
:1048B00084858600878889008A8B8C008D8E8F0086
:1048C000909192009394950096979800999A9B00E6
:1048D0009C9D9E009FA0A100A2A3A400A5A6A70046
:1048E000A8A9AA00ABACAD00AEAFB000B1B2B300A6
:1048F000B4B5B600B7B8B900BABBBC00BDBEBF0006
:104900000102030004050600070809000A0B0C0059
:104910000D0E0F00101112001314150016171800B9
:10492000191A1B001C1D1E001F2021002223240019
:104930002526270028292A002B2C2D002E2F300079
:104940003132330034353600373839003A3B3C00D9
:104950003D3E3F00BF4041004243440045464700C2
:1049600048494A004B4C4D004E4F500051525300A5
:1049700054555600575859005A5B5C005D5E5F0005
:10498000606162006364650066676800696A6B0065
:104990006C6D6E006F7071007273740075767700C5
:1049A00078797A007B7C7D007E7F80008182830025
:1049B00084858600878889008A8B8C008D8E8F0085
:1049C000909192009394950096979800999A9B00E5
:1049D0009C9D9E009FA0A100A2A3A400A5A6A70045
:1049E000A8A9AA00ABACAD00AEAFB000B1B2B300A5
:1049F000B4B5B600B7B8B900BABBBC00BDBEBF0005
:104A00000102030004050600070809000A0B0C0058
:104A10000D0E0F00101112001314150016171800B8
:104A2000191A1B001C1D1E001F2021002223240018
:104A30002526270028292A002B2C2D002E2F300078
:104A40003132330034353600373839003A3B3C00D8
:104A50003D3E3F00BF4041004243440045464700C1
:104A600048494A004B4C4D004E4F500051525300A4
:104A700054555600575859005A5B5C005D5E5F0004
:104A8000606162006364650066676800696A6B0064
:104A90006C6D6E006F7071007273740075767700C4
:104AA00078797A007B7C7D007E7F80008182830024
:104AB00084858600878889008A8B8C008D8E8F0084
:104AC000909192009394950096979800999A9B00E4
:104AD0009C9D9E009FA0A100A2A3A400A5A6A70044
:104AE000A8A9AA00ABACAD00AEAFB000B1B2B300A4
:104AF000B4B5B600B7B8B900BABBBC00BDBEBF0004
:104B00000102030004050600070809000A0B0C0057
:104B10000D0E0F00101112001314150016171800B7
:104B2000191A1B001C1D1E001F2021002223240017
:104B30002526270028292A002B2C2D002E2F300077
:104B40003132330034353600373839003A3B3C00D7
:104B50003D3E3F00BF4041004243440045464700C0
:104B600048494A004B4C4D004E4F500051525300A3
:104B700054555600575859005A5B5C005D5E5F0003
:104B8000606162006364650066676800696A6B0063
:104B90006C6D6E006F7071007273740075767700C3
:104BA00078797A007B7C7D007E7F80008182830023
:104BB00084858600878889008A8B8C008D8E8F0083
:104BC000909192009394950096979800999A9B00E3
:104BD0009C9D9E009FA0A100A2A3A400A5A6A70043
:104BE000A8A9AA00ABACAD00AEAFB000B1B2B300A3
:104BF000B4B5B600B7B8B900BABBBC00BDBEBF0003
:104C00000102030004050600070809000A0B0C0056
:104C10000D0E0F00101112001314150016171800B6
:104C2000191A1B001C1D1E001F2021002223240016
:104C30002526270028292A002B2C2D002E2F300076
:104C40003132330034353600373839003A3B3C00D6
:104C50003D3E3F00BF4041004243440045464700BF
:104C600048494A004B4C4D004E4F500051525300A2
:104C700054555600575859005A5B5C005D5E5F0002
:104C8000606162006364650066676800696A6B0062
:104C90006C6D6E006F7071007273740075767700C2
:104CA00078797A007B7C7D007E7F80008182830022
:104CB00084858600878889008A8B8C008D8E8F0082
:104CC000909192009394950096979800999A9B00E2
:104CD0009C9D9E009FA0A100A2A3A400A5A6A70042
:104CE000A8A9AA00ABACAD00AEAFB000B1B2B300A2
:104CF000B4B5B600B7B8B900BABBBC00BDBEBF0002
:104D00000102030004050600070809000A0B0C0055
:104D10000D0E0F00101112001314150016171800B5
:104D2000191A1B001C1D1E001F2021002223240015
:104D30002526270028292A002B2C2D002E2F300075
:104D40003132330034353600373839003A3B3C00D5
:104D50003D3E3F00BF4041004243440045464700BE
:104D600048494A004B4C4D004E4F500051525300A1
:104D700054555600575859005A5B5C005D5E5F0001
:104D8000606162006364650066676800696A6B0061
:104D90006C6D6E006F7071007273740075767700C1
:104DA00078797A007B7C7D007E7F80008182830021
:104DB00084858600878889008A8B8C008D8E8F0081
:104DC000909192009394950096979800999A9B00E1
:104DD0009C9D9E009FA0A100A2A3A400A5A6A70041
:104DE000A8A9AA00ABACAD00AEAFB000B1B2B300A1
:104DF000B4B5B600B7B8B900BABBBC00BDBEBF0001
:104E00000102030004050600070809000A0B0C0054
:104E10000D0E0F00101112001314150016171800B4
:104E2000191A1B001C1D1E001F2021002223240014
:104E30002526270028292A002B2C2D002E2F300074
:104E40003132330034353600373839003A3B3C00D4
:104E50003D3E3F00BF4041004243440045464700BD
:104E600048494A004B4C4D004E4F500051525300A0
:104E700054555600575859005A5B5C005D5E5F0000
:104E8000606162006364650066676800696A6B0060
:104E90006C6D6E006F7071007273740075767700C0
:104EA00078797A007B7C7D007E7F80008182830020
:104EB00084858600878889008A8B8C008D8E8F0080
:104EC000909192009394950096979800999A9B00E0
:104ED0009C9D9E009FA0A100A2A3A400A5A6A70040
:104EE000A8A9AA00ABACAD00AEAFB000B1B2B300A0
:104EF000B4B5B600B7B8B900BABBBC00BDBEBF0000
:104F00000102030004050600070809000A0B0C0053
:104F10000D0E0F00101112001314150016171800B3
:104F2000191A1B001C1D1E001F2021002223240013
:104F30002526270028292A002B2C2D002E2F300073
:104F40003132330034353600373839003A3B3C00D3
:104F50003D3E3F00BF4041004243440045464700BC
:104F600048494A004B4C4D004E4F5000515253009F
:104F700054555600575859005A5B5C005D5E5F00FF
:104F8000606162006364650066676800696A6B005F
:104F90006C6D6E006F7071007273740075767700BF
:104FA00078797A007B7C7D007E7F8000818283001F
:104FB00084858600878889008A8B8C008D8E8F007F
:104FC000909192009394950096979800999A9B00DF
:104FD0009C9D9E009FA0A100A2A3A400A5A6A7003F
:104FE000A8A9AA00ABACAD00AEAFB000B1B2B3009F
:104FF000B4B5B600B7B8B900BABBBC00BDBEBF00FF
:105000000102030004050600070809000A0B0C0052
:105010000D0E0F00101112001314150016171800B2
:10502000191A1B001C1D1E001F2021002223240012
:105030002526270028292A002B2C2D002E2F300072
:105040003132330034353600373839003A3B3C00D2
:105050003D3E3F00BF4041004243440045464700BB
:1050600048494A004B4C4D004E4F5000515253009E
:1050700054555600575859005A5B5C005D5E5F00FE
:10508000606162006364650066676800696A6B005E
:105090006C6D6E006F7071007273740075767700BE
:1050A00078797A007B7C7D007E7F8000818283001E
:1050B00084858600878889008A8B8C008D8E8F007E
:1050C000909192009394950096979800999A9B00DE
:1050D0009C9D9E009FA0A100A2A3A400A5A6A7003E
:1050E000A8A9AA00ABACAD00AEAFB000B1B2B3009E
:1050F000B4B5B600B7B8B900BABBBC00BDBEBF00FE
:105100000102030004050600070809000A0B0C0051
:105110000D0E0F00101112001314150016171800B1
:10512000191A1B001C1D1E001F2021002223240011
:105130002526270028292A002B2C2D002E2F300071
:105140003132330034353600373839003A3B3C00D1
:105150003D3E3F00BF4041004243440045464700BA
:1051600048494A004B4C4D004E4F5000515253009D
:1051700054555600575859005A5B5C005D5E5F00FD
:10518000606162006364650066676800696A6B005D
:105190006C6D6E006F7071007273740075767700BD
:1051A00078797A007B7C7D007E7F8000818283001D
:1051B00084858600878889008A8B8C008D8E8F007D
:1051C000909192009394950096979800999A9B00DD
:1051D0009C9D9E009FA0A100A2A3A400A5A6A7003D
:1051E000A8A9AA00ABACAD00AEAFB000B1B2B3009D
:1051F000B4B5B600B7B8B900BABBBC00BDBEBF00FD
:105200000102030004050600070809000A0B0C0050
:105210000D0E0F00101112001314150016171800B0
:10522000191A1B001C1D1E001F2021002223240010
:105230002526270028292A002B2C2D002E2F300070
:105240003132330034353600373839003A3B3C00D0
:105250003D3E3F00BF4041004243440045464700B9
:1052600048494A004B4C4D004E4F5000515253009C
:1052700054555600575859005A5B5C005D5E5F00FC
:10528000606162006364650066676800696A6B005C
:105290006C6D6E006F7071007273740075767700BC
:1052A00078797A007B7C7D007E7F8000818283001C
:1052B00084858600878889008A8B8C008D8E8F007C
:1052C000909192009394950096979800999A9B00DC
:1052D0009C9D9E009FA0A100A2A3A400A5A6A7003C
:1052E000A8A9AA00ABACAD00AEAFB000B1B2B3009C
:1052F000B4B5B600B7B8B900BABBBC00BDBEBF00FC
:105300000102030004050600070809000A0B0C004F
:105310000D0E0F00101112001314150016171800AF
:10532000191A1B001C1D1E001F202100222324000F
:105330002526270028292A002B2C2D002E2F30006F
:105340003132330034353600373839003A3B3C00CF
:105350003D3E3F00BF4041004243440045464700B8
:1053600048494A004B4C4D004E4F5000515253009B
:1053700054555600575859005A5B5C005D5E5F00FB
:10538000606162006364650066676800696A6B005B
:105390006C6D6E006F7071007273740075767700BB
:1053A00078797A007B7C7D007E7F8000818283001B
:1053B00084858600878889008A8B8C008D8E8F007B
:1053C000909192009394950096979800999A9B00DB
:1053D0009C9D9E009FA0A100A2A3A400A5A6A7003B
:1053E000A8A9AA00ABACAD00AEAFB000B1B2B3009B
:1053F000B4B5B600B7B8B900BABBBC00BDBEBF00FB
:105400000102030004050600070809000A0B0C004E
:105410000D0E0F00101112001314150016171800AE
:10542000191A1B001C1D1E001F202100222324000E
:105430002526270028292A002B2C2D002E2F30006E
:105440003132330034353600373839003A3B3C00CE
:105450003D3E3F00BF4041004243440045464700B7
:1054600048494A004B4C4D004E4F5000515253009A
:1054700054555600575859005A5B5C005D5E5F00FA
:10548000606162006364650066676800696A6B005A
:105490006C6D6E006F7071007273740075767700BA
:1054A00078797A007B7C7D007E7F8000818283001A
:1054B00084858600878889008A8B8C008D8E8F007A
:1054C000909192009394950096979800999A9B00DA
:1054D0009C9D9E009FA0A100A2A3A400A5A6A7003A
:1054E000A8A9AA00ABACAD00AEAFB000B1B2B3009A
:1054F000B4B5B600B7B8B900BABBBC00BDBEBF00FA
:105500000102030004050600070809000A0B0C004D
:105510000D0E0F00101112001314150016171800AD
:10552000191A1B001C1D1E001F202100222324000D
:105530002526270028292A002B2C2D002E2F30006D
:105540003132330034353600373839003A3B3C00CD
:105550003D3E3F00BF4041004243440045464700B6
:1055600048494A004B4C4D004E4F50005152530099
:1055700054555600575859005A5B5C005D5E5F00F9
:10558000606162006364650066676800696A6B0059
:105590006C6D6E006F7071007273740075767700B9
:1055A00078797A007B7C7D007E7F80008182830019
:1055B00084858600878889008A8B8C008D8E8F0079
:1055C000909192009394950096979800999A9B00D9
:1055D0009C9D9E009FA0A100A2A3A400A5A6A70039
:1055E000A8A9AA00ABACAD00AEAFB000B1B2B30099
:1055F000B4B5B600B7B8B900BABBBC00BDBEBF00F9
:105600000102030004050600070809000A0B0C004C
:105610000D0E0F00101112001314150016171800AC
:10562000191A1B001C1D1E001F202100222324000C
:105630002526270028292A002B2C2D002E2F30006C
:105640003132330034353600373839003A3B3C00CC
:105650003D3E3F00BF4041004243440045464700B5
:1056600048494A004B4C4D004E4F50005152530098
:1056700054555600575859005A5B5C005D5E5F00F8
:10568000606162006364650066676800696A6B0058
:105690006C6D6E006F7071007273740075767700B8
:1056A00078797A007B7C7D007E7F80008182830018
:1056B00084858600878889008A8B8C008D8E8F0078
:1056C000909192009394950096979800999A9B00D8
:1056D0009C9D9E009FA0A100A2A3A400A5A6A70038
:1056E000A8A9AA00ABACAD00AEAFB000B1B2B30098
:1056F000B4B5B600B7B8B900BABBBC00BDBEBF00F8
:105700000102030004050600070809000A0B0C004B
:105710000D0E0F00101112001314150016171800AB
:10572000191A1B001C1D1E001F202100222324000B
:105730002526270028292A002B2C2D002E2F30006B
:105740003132330034353600373839003A3B3C00CB
:105750003D3E3F00BF4041004243440045464700B4
:1057600048494A004B4C4D004E4F50005152530097
:1057700054555600575859005A5B5C005D5E5F00F7
:10578000606162006364650066676800696A6B0057
:105790006C6D6E006F7071007273740075767700B7
:1057A00078797A007B7C7D007E7F80008182830017
:1057B00084858600878889008A8B8C008D8E8F0077
:1057C000909192009394950096979800999A9B00D7
:1057D0009C9D9E009FA0A100A2A3A400A5A6A70037
:1057E000A8A9AA00ABACAD00AEAFB000B1B2B30097
:1057F000B4B5B600B7B8B900BABBBC00BDBEBF00F7
:105800000102030004050600070809000A0B0C004A
:105810000D0E0F00101112001314150016171800AA
:10582000191A1B001C1D1E001F202100222324000A
:105830002526270028292A002B2C2D002E2F30006A
:105840003132330034353600373839003A3B3C00CA
:105850003D3E3F00BF4041004243440045464700B3
:1058600048494A004B4C4D004E4F50005152530096
:1058700054555600575859005A5B5C005D5E5F00F6
:10588000606162006364650066676800696A6B0056
:105890006C6D6E006F7071007273740075767700B6
:1058A00078797A007B7C7D007E7F80008182830016
:1058B00084858600878889008A8B8C008D8E8F0076
:1058C000909192009394950096979800999A9B00D6
:1058D0009C9D9E009FA0A100A2A3A400A5A6A70036
:1058E000A8A9AA00ABACAD00AEAFB000B1B2B30096
:1058F000B4B5B600B7B8B900BABBBC00BDBEBF00F6
:105900000102030004050600070809000A0B0C0049
:105910000D0E0F00101112001314150016171800A9
:10592000191A1B001C1D1E001F2021002223240009
:105930002526270028292A002B2C2D002E2F300069
:105940003132330034353600373839003A3B3C00C9
:105950003D3E3F00BF4041004243440045464700B2
:1059600048494A004B4C4D004E4F50005152530095
:1059700054555600575859005A5B5C005D5E5F00F5
:10598000606162006364650066676800696A6B0055
:105990006C6D6E006F7071007273740075767700B5
:1059A00078797A007B7C7D007E7F80008182830015
:1059B00084858600878889008A8B8C008D8E8F0075
:1059C000909192009394950096979800999A9B00D5
:1059D0009C9D9E009FA0A100A2A3A400A5A6A70035
:1059E000A8A9AA00ABACAD00AEAFB000B1B2B30095
:1059F000B4B5B600B7B8B900BABBBC00BDBEBF00F5
:105A00000102030004050600070809000A0B0C0048
:105A10000D0E0F00101112001314150016171800A8
:105A2000191A1B001C1D1E001F2021002223240008
:105A30002526270028292A002B2C2D002E2F300068
:105A40003132330034353600373839003A3B3C00C8
:105A50003D3E3F00BF4041004243440045464700B1
:105A600048494A004B4C4D004E4F50005152530094
:105A700054555600575859005A5B5C005D5E5F00F4
:105A8000606162006364650066676800696A6B0054
:105A90006C6D6E006F7071007273740075767700B4
:105AA00078797A007B7C7D007E7F80008182830014
:105AB00084858600878889008A8B8C008D8E8F0074
:105AC000909192009394950096979800999A9B00D4
:105AD0009C9D9E009FA0A100A2A3A400A5A6A70034
:105AE000A8A9AA00ABACAD00AEAFB000B1B2B30094
:105AF000B4B5B600B7B8B900BABBBC00BDBEBF00F4
:105B00000102030004050600070809000A0B0C0047
:105B10000D0E0F00101112001314150016171800A7
:105B2000191A1B001C1D1E001F2021002223240007
:105B30002526270028292A002B2C2D002E2F300067
:105B40003132330034353600373839003A3B3C00C7
:105B50003D3E3F00BF4041004243440045464700B0
:105B600048494A004B4C4D004E4F50005152530093
:105B700054555600575859005A5B5C005D5E5F00F3
:105B8000606162006364650066676800696A6B0053
:105B90006C6D6E006F7071007273740075767700B3
:105BA00078797A007B7C7D007E7F80008182830013
:105BB00084858600878889008A8B8C008D8E8F0073
:105BC000909192009394950096979800999A9B00D3
:105BD0009C9D9E009FA0A100A2A3A400A5A6A70033
:105BE000A8A9AA00ABACAD00AEAFB000B1B2B30093
:105BF000B4B5B600B7B8B900BABBBC00BDBEBF00F3
:105C00000102030004050600070809000A0B0C0046
:105C10000D0E0F00101112001314150016171800A6
:105C2000191A1B001C1D1E001F2021002223240006
:105C30002526270028292A002B2C2D002E2F300066
:105C40003132330034353600373839003A3B3C00C6
:105C50003D3E3F00BF4041004243440045464700AF
:105C600048494A004B4C4D004E4F50005152530092
:105C700054555600575859005A5B5C005D5E5F00F2
:105C8000606162006364650066676800696A6B0052
:105C90006C6D6E006F7071007273740075767700B2
:105CA00078797A007B7C7D007E7F80008182830012
:105CB00084858600878889008A8B8C008D8E8F0072
:105CC000909192009394950096979800999A9B00D2
:105CD0009C9D9E009FA0A100A2A3A400A5A6A70032
:105CE000A8A9AA00ABACAD00AEAFB000B1B2B30092
:105CF000B4B5B600B7B8B900BABBBC00BDBEBF00F2
:105D00000102030004050600070809000A0B0C0045
